:100000000C9463000C948B000C948B000C94F00BFC
:100010000C94CB0B0C94A60B0C948B000C948B00C3
:100020000C948B000C948B000C948B000C948B0024
:100030000C948B000C948B000C948B000C948B0014
:100040000C94040B0C948B000C94740B0C944E0BBE
:100050000C948B000C948B000C948B000C948B00F4
:100060000C94150C0C948B00000000002400270059
:100070002A000000000023002600290000000000E4
:10008000250028002B0004040404040404040202D4
:100090000202020203030303030301020408102007
:1000A0004080010204081020010204081020000012
:1000B0000008000201000003040700000000000027
:1000C0000000340D1B1211241FBECFEFD8E0DEBF9D
:1000D000CDBF26E0A0EDB3E001C01D92A036B2076F
:1000E000E1F713E0A0E0B1E0E0EEF8E202C0059035
:1000F0000D92A03DB107D9F710E0C2E6D0E004C0F0
:100100002197FE010E946612C136D107C9F70E94ED
:10011000870E0C9463140C94000096E0899FD00124
:100120001124AA55BA4F90967C936E935F9791E0F5
:1001300091969C939197E0911306F09114069091FB
:100140001206992339F0309751F0811108C080913F
:10015000C2050994309719F05C968C91FACF0895F6
:10016000833081F028F4813099F08230A9F008952D
:100170008730A9F08830C9F08430B1F480918000D4
:100180008F7D03C0809180008F77809380000895D9
:1001900084B58F7784BD089584B58F7DFBCF809122
:1001A000B0008F778093B00008958091B0008F7D6C
:1001B000F9CF1F93CF93DF93282F30E0F901E25559
:1001C000FF4F8491F901E656FF4FD491F901EA57A8
:1001D000FF4FC491CC23A9F0162F81110E94B000CB
:1001E000EC2FF0E0EE0FFF1FE458FF4FA591B49104
:1001F0008FB7F894EC91111108C0D095DE23DC93F1
:100200008FBFDF91CF911F910895DE2BF8CF3FB7BD
:10021000F8948091590490915A04A0915B04B09194
:100220005C0426B5A89B05C02F3F19F00196A11DBF
:10023000B11D3FBFBA2FA92F982F8827BC01CD0130
:10024000620F711D811D911D42E0660F771F881F8F
:10025000991F4A95D1F708958F929F92AF92BF92BE
:10026000CF92DF92EF92FF924B015C010E94070157
:100270006B017C010E9407016C197D098E099F09A1
:10028000683E734081059105A8F321E0821A910828
:10029000A108B10888EEC80E83E0D81EE11CF11C4D
:1002A00081149104A104B10429F7FF90EF90DF902D
:1002B000CF90BF90AF909F908F9008952FB7F894F4
:1002C00060915504709156048091570490915804A0
:1002D0002FBF08950F931F93CF93DF93C82FD62F6F
:1002E00086E0C89FF0011124EA55FA4F11A2878DCC
:1002F00090A181309105F1F058F082309105F1F133
:10030000039709F440C0DF91CF911F910F91089599
:100310006623C9F361E070E08C2F0E948D000E947B
:100320005E016093FE057093FF0580930006909335
:100330000106E9CF0E945E010091FE051091FF05C4
:100340002091000630910106AB01BC01401B510B0E
:10035000620B730B8091100690911106B0E0A0E043
:1003600084179507A607B70748F462E070E08C2F62
:10037000DF91CF911F910F910C948D0063E070E09D
:10038000D111C1CFF4CF70E060E0F1CF08950895AE
:10039000089580914F0490915004891B990B089502
:1003A000AF92BF92CF92DF92EF92FF920F931F9383
:1003B000CF93DF936C017B018B01040F151FEB01C1
:1003C0005E01AE18BF08C017D10759F06991D60178
:1003D000ED91FC910190F081E02DC6010995892BEA
:1003E00079F7C501DF91CF911F910F91FF90EF90A9
:1003F000DF90CF90BF90AF900895FC01538D448D56
:10040000252F30E0842F90E0821B930B541710F0BF
:10041000CF96089501970895FC01918D828D9817CC
:1004200061F0A28DAE0FBF2FB11D5D968C91928DA4
:100430009F5F9F73928F90E008958FEF9FEF0895D5
:10044000FC01918D828D981731F0828DE80FF11D9E
:10045000858D90E008958FEF9FEF0895FC01918DB9
:10046000228D892F90E0805C9F4F821B91098F73B2
:10047000992708958DEC94E00E942E0221E0892BAB
:1004800009F420E0822F089580E090E0892B29F084
:100490000E943A0281110C9400000895FC01A48D81
:1004A000A80FB92FB11DA35ABF4F2C91848D90E096
:1004B00001968F739927848FA689B7892C93A08979
:1004C000B1898C91837080648C93938D848D981303
:1004D00006C00288F389E02D80818F7D8083089596
:1004E000EF92FF920F931F93CF93DF93EC0181E084
:1004F000888F9B8D8C8D98131AC0E889F98980812B
:1005000085FF15C09FB7F894EE89FF896083E8895D
:10051000F98980818370806480839FBF81E090E04F
:10052000DF91CF911F910F91FF90EF900895F62EDC
:100530000B8D10E00F5F1F4F0F731127E02E8C8D76
:100540008E110CC00FB607FCFACFE889F9898081BB
:1005500085FFF5CFCE010E944E02F1CFEB8DEC0F5F
:10056000FD2FF11DE35AFF4FF0829FB7F8940B8FD8
:10057000EA89FB8980818062CFCFCF93DF93EC0142
:10058000888D8823B9F0AA89BB89E889F9898C917B
:1005900085FD03C0808186FD0DC00FB607FCF7CF37
:1005A0008C9185FFF2CF808185FFEDCFCE010E9437
:1005B0004E02E9CFDF91CF910895CF93DF9370E0A2
:1005C000FB01E255FF4F8491FB01E656FF4FD491AA
:1005D0006A577F4FFB01C491CC23A1F081110E9487
:1005E000B000EC2FF0E0EE0FFF1FEE58FF4FA5918B
:1005F000B491EC91ED2381E090E009F480E0DF918B
:10060000CF91089580E090E0FACF862F642F0C946C
:10061000D900CF93DF9370E0FB01E656FF4F2491A2
:100620006A577F4FFB0184918823C9F090E0880FBF
:10063000991FFC01E859FF4FA591B491FC01E458C2
:10064000FF4FC591D49141110DC09FB7F8948C9183
:10065000209582238C938881282328839FBFDF9154
:10066000CF910895423051F49FB7F8943C91822F76
:10067000809583238C93E8812E2BEFCF8FB7F8944E
:10068000EC912E2B2C938FBFEACF90E0FC01EE0F64
:10069000FF1FEA58FF4FA591B4912C91FC01E85B34
:1006A000FB4F30812083880F991FFC01E05FFE4FD4
:1006B0000190F081E02D8081089521E001C0220F9A
:1006C0006A95EAF7DC011C962C931C971A965C93AA
:1006D0004E931997ED91FC910484F585E02D60E02F
:1006E0000994DC01ED91FC910684F785E02D41E051
:1006F000099581E090E00895DC01ED91FC9106847C
:10070000F785E02D40E009940F931F93CF93DF937B
:10071000CDB7DEB728970FB6F894DEBF0FBECDBFBA
:10072000009108011091090120910A0130910B01FB
:100730000D831E832F83388700910C0110910D01CA
:1007400020910E0130910F0109831A832B833C8382
:1007500090917105691710F06FEF690F262F30E047
:10076000409172052C0F3D1FF901403199F49430EE
:1007700089F46181680F60688AE695E028960FB673
:10078000F894DEBF0FBECDBFDF91CF911F910F91C7
:100790000C947C036581EECFDC01ED91FC91048427
:1007A000F585E02D6FEF099461E00E947C038BE3F7
:1007B0009FE10197F1F708950F931F93CF93DF9374
:1007C000EC01423018F08C8188608C834F836887FD
:1007D000222329F0413019F48C8184608C8364E6F3
:1007E00070E080E090E00E942C016C8164FD52C0BA
:1007F000E881F9810684F785E02D42E063E0CE01CF
:1008000009958BE496E40197F1F7E881F981068474
:10081000F785E02D42E063E0CE01099503E512E0A3
:10082000C8010197F1F7E881F9810684F785E02D89
:1008300042E063E0CE010995C8010197F1F7E88134
:10084000F9810684F785E02D42E062E0CE0109954A
:10085000C8010197F1F76C816062CE010E947C03B0
:100860008BEE90E00197F1F784E08D836CE0CE0190
:100870000E947C03CE010E94D40382E08E8366E056
:10088000CE010E947C03CE01DF91CF911F910F9189
:100890000C94CC036062CE010E947C038BE496E44E
:1008A0000197F1F76C816062CE010E947C0303E541
:1008B00012E0C8010197F1F76C816062CE010E94DD
:1008C0007C03C6CF0895089508952091F503260F5F
:1008D0003327331F21323105ECF42091A304FC01AE
:1008E00090E080E0243069F082E00895A091F50363
:1008F0002191AC014B525C4FA40FB52FB11D2C932D
:100900000196861798F38091F503680F6093F503BD
:1009100080E0089581E008951092A30481E080931F
:10092000A20410927D0461E082E10E94D90061E09E
:1009300083E10E94D900E9EBF0E080818E7F808323
:1009400080818D7F808388E48093B80085E48093E4
:10095000BC000895CF93DF9391E09093D403882354
:10096000B9F0C091B800D091BA008091BC008A7BE8
:100970008093BC0060E082E10E94D90060E083E1E6
:100980000E94D9000E948C04D093BA00C093B80092
:10099000DF91CF9108958F929F92AF92BF92CF92A5
:1009A000DF92EF92FF920F931F93CF93DF93D0913B
:1009B000CC04D13208F0D7C0182FC091CB040E94CC
:1009C00007016B017C018091A30481116BC082E05F
:1009D0008093A3041093A2048FEF8093A10410923C
:1009E000A004D0939F04ABEAB4E0EFE7F4E080E02A
:1009F000D81391C010927E0480917E04CC0FC82B36
:100A0000C0937E0480917D04813009F088C01092EB
:100A10007D040E9407016B017C0180917E0480931C
:100A2000BB008091A5049091A604A091A704B09169
:100A3000A804892B8A2B8B2BA1F00E94070100911F
:100A4000A5041091A6042091A7043091A8046C1964
:100A50007D098E099F09061717072807390708F42B
:100A600042C08091BC0083FDD8CF85EC8093BC0050
:100A70000E9407016B017C018091A304823009F47C
:100A800050C08091A1048F3F09F46FC08091A104F0
:100A9000803209F46CC08091A104803309F469C0EC
:100AA00084E026C08091A5049091A604A091A7049B
:100AB000B091A804892B8A2B8B2B09F484CF0E9438
:100AC00007018090A5049090A604A090A704B09080
:100AD000A8046C197D098E099F0986169706A80639
:100AE000B90608F070CF8091A4040E94AA0485E0A2
:100AF0001092AA041092CC041092A904DF91CF9115
:100B00001F910F91FF90EF90DF90CF90BF90AF902B
:100B10009F908F9008959D9191938F5F69CF85EEFF
:100B2000A5CF8091A5049091A604A091A704B091AF
:100B3000A804892B8A2B8B2B09F49ECF0E940701D6
:100B40000091A5041091A6042091A7043091A80457
:100B50006C197D098E099F090617170728073907A1
:100B600008F08ACFC0CF81E0C3CF80E0C1CF82E060
:100B7000BFCF83E0BDCFEF92FF920F931F93CF9330
:100B8000DF93EC018B017C0183E7E80EF11CD701B8
:100B90008D919C91FE01E159FF4F208131E030930E
:100BA000A9042093CB041092AA041092CC04DC0177
:100BB000ED91FC910190F081E02D0995FE01E05945
:100BC000FF4F8081823058F0F70180819181DC01F4
:100BD000ED91FC910190F081E02D612F099581E06C
:100BE0000E94CB04CF58DF4F08831983DF91CF9148
:100BF0001F910F91FF90EF90089521E030E002C027
:100C0000220F331F6A95E2F7FC01EF58FF4F608116
:100C10007181442341F0262B372B3183208360815F
:100C200071810C94BB052095309526233723F5CF91
:100C3000CF92DF92EF92FF920F931F93CF93DF93A8
:100C4000D82FC62F613208F098C00E9407016B01AF
:100C50007C018091A30481116BC081E08093A30487
:100C60008093A2049FEF9093A1041092A0049C0F84
:100C700090939F0480937E0480917E04DD0FD82B97
:100C8000D0937E0480917D04813009F078C0109269
:100C90007D040E9407016B017C0180917E0480939A
:100CA000BB008091A5049091A604A091A704B091E7
:100CB000A804892B8A2B8B2BA1F00E94070100919D
:100CC000A5041091A6042091A7043091A8046C19E2
:100CD0007D098E099F09061717072807390708F4A9
:100CE00048C08091BC0083FDD8CF85EC8093BC00C8
:100CF0000E9407016B017C018091A304813009F4FB
:100D000040C08091A0048C1710F4C091A004EFE7BC
:100D1000F4E0ADE5B4E080E08C1355C08C2FDF919A
:100D2000CF911F910F91FF90EF90DF90CF9008959A
:100D30008091A5049091A604A091A704B091A80465
:100D4000892B8A2B8B2B09F484CF0E9407010091F9
:100D5000A5041091A6042091A7043091A8046C1951
:100D60007D098E099F09061717072807390708F01C
:100D700070CF8091A4040E94AA04C0E0CFCF85EE7A
:100D8000B5CF8091A5049091A604A091A704B0913D
:100D9000A804892B8A2B8B2B09F4AECF0E94070164
:100DA0000091A5041091A6042091A7043091A804F5
:100DB0006C197D098E099F0906171707280739073F
:100DC00008F09ACFD6CF91919D938F5FA5CF0895CC
:100DD000E091500480914F04E81730F4F0E0E35ABA
:100DE000FB4F808190E008958FEF9FEF08959091E1
:100DF000500480914F042FEF3FEF981748F4E92FEC
:100E0000F0E0E35AFB4F208130E09F5F9093500465
:100E1000C9010895CF92DF92EF92FF920F931F9333
:100E2000CF93DF937C01CB018A012091A904222377
:100E300089F0EB016B01C40ED51ECC15DD0569F000
:100E40006991D701ED91FC910190F081E02DC701EE
:100E50000995F3CF642F0E946504C801DF91CF91FB
:100E60001F910F91FF90EF90DF90CF900895CF9357
:100E7000DF931F92CDB7DEB769832091A9042223A7
:100E8000F9F02091CC04203258F021E030E0FC0150
:100E90003383228390E080E00F90DF91CF9108951B
:100EA0008091AA04E82FF0E0E555FB4F99819083EB
:100EB0008F5F8093AA048093CC0481E090E0ECCF14
:100EC00061E0CE0101960E946504F7CFEBE1F6E008
:100ED000918162818081238131E03093A904209344
:100EE000CB041092AA041092CC0460956923682B5D
:100EF0008AE995E00E94370781E00C94CB04FC015D
:100F000023812223F9F0262F61816095622360837B
:100F1000828191E09093A9048093CB041092AA045B
:100F20001092CC048AE995E00E94370781E00E9484
:100F3000CB04282F30E081E090E0232B11F090E0EB
:100F400080E0089530E020E0F6CFEF92FF920F931B
:100F50001F93CF938C01FC0184E0C0E0262F30E08A
:100F600060FF02C09589C92BB901759567958150BD
:100F700031968111F3CF413011F4F8014489F80121
:100F80006585C62BC42B7801FEE0EF0EF11CF8013D
:100F900062896C2BC7010E947F07F8016289609506
:100FA0006C23C701CF911F910F91FF90EF900C948C
:100FB0007F070F931F93CF93DF93062F0F7042305D
:100FC00041F440E0602FDF91CF911F910F910C947D
:100FD000A507142FEC0170E084E0759567958A955C
:100FE000E1F7CE010E94A507412F602FCE01EBCF84
:100FF000FC0184858823A1F02185328521153105E6
:1010000021F4611107C0158606C021303105D9F7DA
:101010006111F9CF85876585CF010E960C947F0706
:101020000895EF92FF920F931F93CF93DF93EC01FC
:10103000062FF42EE22E8B85888B1092500410928E
:101040004F041092AA041092CC040E948C0487ECE6
:1010500091E090934E0480934D0488EC91E090933E
:101060004C0480934B04888911E01093A904809369
:10107000CB0481E00E94CB0481111CC0198B8AE94A
:1010800095E00E94F7068E878989882339F01F86AC
:101090001C8260E0CE010E960E947F072E2D4F2D00
:1010A000602FCE01DF91CF911F910F91FF90EF90B4
:1010B0000C94DC03198AE8CF90E080E00895CF9289
:1010C000DF92EF92FF920F931F93CF93DF93EC0188
:1010D00081E090E07C0102C0EE0CFF1C6A95E2F713
:1010E0006E0180E7C80ED11CD6016C91613208F008
:1010F00060E2FE01E159FF4F80810E9418061092C4
:10110000500480934F04CD58DF4F88819981DC01D2
:10111000ED91FC910284F385E02D09958C01F60197
:101120008081823060F088819981DC01ED91FC91B1
:101130000284F385E02D099520E0022B182B0E2167
:101140001F2181E090E00E151F0511F090E080E076
:10115000DF91CF911F910F91FF90EF90DF90CF9093
:101160000895FB0101900020E9F73197AF01461B7C
:10117000570BDC01ED91FC910280F381E02D099485
:1011800063E871E08DEC94E00C94B108CF93DF93A9
:10119000BC018DEC94E00E94B108EC010E94C008F3
:1011A0008C0F9D1FDF91CF9108951092520481E022
:1011B00080930001E3E8F5E0148A108286E891E06C
:1011C0000C94C6080C94B1088AE695E00E94D403FA
:1011D00062E08AE695E00E947C038BE39FE1019741
:1011E000F1F760E084E00E94840365E971E08AE63B
:1011F00095E00E94E20863E080E00E94840361EAD7
:1012000071E08AE695E00C94E208CF93C82F8BEA50
:1012100091E00E94C6088AE695E00E94CC03809186
:10122000C5059091C6050197E1F56AEB71E08DEC7B
:1012300094E00E94E2086C2F8DEC94E00E94700212
:1012400062EC71E08DEC94E00E94E20863E875E0E6
:101250008DEC94E00E94E2086C2F8DEC94E00E94EB
:1012600070020E94C00881E08093520480930001C4
:10127000C332C9F0CA32E1F080910101882389F0BC
:10128000E0919705E33169F081E08E0F8093970537
:10129000F0E0ED57FA4FC083E82FF0E0ED57FA4F3A
:1012A0001082CF9108958DEC91E0CF910C94C608F7
:1012B0008BED91E00E94C6080E94D5088091010143
:1012C000882379F38AE695E00E94D40361E086E002
:1012D0000E94840363EE71E08AE695E00E94E208D2
:1012E0006EEE72E080E090E00E942C01CF910C94B1
:1012F000E408EF92FF920F931F93CF930E945E0139
:101300000091D0031091D1032091D2033091D303E7
:10131000601B710B820B930B61377741810591053F
:1013200058F080915204811107C081E08093000140
:101330008BEE91E00E94C60880910001882309F499
:10134000B7C08091010181110E94E4080E945E01F2
:101350006093D0037093D1038093D2039093D3030F
:101360001092000187EF91E00E94C608809152041C
:10137000882391F18AE695E00E94CC0380910101D7
:101380008823F9F003E815E0C8E07801F70101903F
:101390000020E9F7CF018458954098012358354043
:1013A0002817390770F461E08C2F0E948403F8013C
:1013B00061918F018AE695E00E947103CF5FC4318D
:1013C00029F765E070E080E090E0CF911F910F91E8
:1013D000FF90EF900C942C01809151048823C1F16F
:1013E0008AE695E00E94D40361E087E00E948403CE
:1013F00061E072E08AE695E00E94E20862E086E041
:101400000E94840368E072E08AE695E00E94E208A8
:1014100068EE73E080E090E00E942C0164E670E0EA
:1014200080E090E00E942C0180911B0681608093F7
:101430001B060E94660780E192E00E94C60864E6EF
:1014400070E080E090E00E942C0110925104B9CF2E
:1014500080915304882321F18AE695E00E94D40309
:1014600061E087E00E94840361E072E08AE695E033
:101470000E94E20862E087E00E9484036DE172E06E
:101480008AE695E00E94E20868EE73E080E090E072
:101490000E942C0181E0809300011092530491CFAF
:1014A00080910101882309F48CCF0E94E40889CF40
:1014B0000E945E010091D0031091D1032091D203CC
:1014C0003091D303601B710B820B930B693873410E
:1014D0008105910508F475CF0E94D508809101011E
:1014E00081110E94E40860E08AE695E00E94F80716
:1014F00068CF0E944E14FC0180819181009711F009
:101500000C9408130895EF92FF920F931F93CF93BB
:10151000DF93EC017B01198218821B821A821D82E3
:101520001C82FB0101900020E9F731978F01061B17
:10153000170BB8016F5F7F4F90E080E00E9491131E
:101540000097B9F0998388831B830A832C813D819E
:10155000232B11F4FC0110821D830C83B7018881B9
:101560009981DF91CF911F910F91FF90EF900C9493
:101570005C1488819981009711F00E9408131982E8
:1015800018821D821C821B821A82DF91CF911F91CB
:101590000F91FF90EF90089585ED8093BC008091AE
:1015A000A5049091A604A091A704B091A804079661
:1015B000A11DB11D23E0B695A795979587952A950E
:1015C000D1F72091BC0024FD03C01092A30408951C
:1015D0004091A5045091A6046091A7047091A804BD
:1015E000452B462B472B69F30097A105B10541F028
:1015F00025E32A95F1F700000197A109B109E1CF90
:101600008091A4040C94AA041F920F920FB60F921B
:1016100011242F933F938F939F93AF93BF93809108
:10162000550490915604A0915704B09158043091FC
:10163000540423E0230F2D3758F50196A11DB11D49
:10164000209354048093550490935604A093570418
:10165000B09358048091590490915A04A0915B046E
:10166000B0915C040196A11DB11D80935904909323
:101670005A04A0935B04B0935C04BF91AF919F9117
:101680008F913F912F910F900FBE0F901F90189543
:1016900026E8230F0296A11DB11DD2CF1F920F92F3
:1016A0000FB60F9211242F933F934F935F936F9335
:1016B0007F938F939F93AF93BF93EF93FF938DECA3
:1016C00094E00E944E02FF91EF91BF91AF919F91E4
:1016D0008F917F916F915F914F913F912F910F90DB
:1016E0000FBE0F901F9018951F920F920FB60F927A
:1016F00011242F938F939F93EF93FF93E091DD0439
:10170000F091DE048081E091E304F091E40482FD35
:101710001BC090818091E6048F5F8F732091E70456
:10172000821741F0E091E604F0E0E353FB4F958F20
:101730008093E604FF91EF919F918F912F910F90ED
:101740000FBE0F901F9018958081F4CF1F920F92BB
:101750000FB60F9211242F933F934F935F936F9384
:101760007F938F939F93AF93BF93EF93FF9382E009
:101770000E944503FF91EF91BF91AF919F918F918F
:101780007F916F915F914F913F912F910F900FBE7D
:101790000F901F9018951F920F920FB60F92112461
:1017A0002F933F934F935F936F937F938F939F9369
:1017B000AF93BF93EF93FF9381E00E944503FF91A6
:1017C000EF91BF91AF919F918F917F916F915F91B9
:1017D0004F913F912F910F900FBE0F901F90189532
:1017E0001F920F920FB60F9211242F933F934F9396
:1017F0005F936F937F938F939F93AF93BF93EF9379
:10180000FF9380E00E944503FF91EF91BF91AF915C
:101810009F918F917F916F915F914F913F912F9108
:101820000F900FBE0F901F9018951F920F920FB63A
:101830000F9211242F933F934F935F936F937F9356
:101840008F939F93AF93BF93EF93FF938091B900D2
:10185000887F803609F44AC0F0F5883209F4A7C0C1
:1018600018F5803109F49BC0B8F4882309F4F9C055
:10187000883009F494C0FF91EF91BF91AF919F918F
:101880008F917F916F915F914F913F912F910F9029
:101890000FBE0F901F901895883109F488C08032D0
:1018A00051F78093A10414C0803409F49DC040F422
:1018B0008033B9F38833F9F68093A10485ECB0C086
:1018C000803509F485C0883509F496C0883499F6C6
:1018D0000E94CC0AD0CF883909F48CC038F58837FB
:1018E00029F050F4883611F0803729F683E0809390
:1018F000A3041092170457C0883809F47BC08039BC
:1019000019F0803809F0B7CF80911704803208F0C1
:1019100071C0E091170481E08E0F809317048091CD
:10192000BB00F0E0E950FC4F80833DC0803B39F0C4
:10193000E0F4803A09F479C0883A09F09CCF84E059
:101940008093A3041092F6031092F503E0914D04E6
:10195000F0914E0409958091F50381110FC081E04B
:101960008093F5031092D50309C0803C09F4A6CFFB
:10197000883C09F4A3CF883B09F07DCFE091F603C2
:1019800081E08E0F8093F603F0E0EB52FC4F8081F4
:101990008093BB009091F6038091F50329C080915C
:1019A0007E048093BB0085EC8093BC0064CF909153
:1019B000A00480919F04981758F5E091A00481E05D
:1019C0008E0F8093A004F0E0E158FB4F8081E9CFB7
:1019D000E091A00481E08E0F8093A0048091BB0071
:1019E000F0E0E158FB4F80839091A00480919F0428
:1019F0009817C8F285E8D8CFE091A00481E08E0F57
:101A00008093A0048091BB00F0E0E158FB4F8083FD
:101A10008091A20481115CCF81E080937D0484EAEF
:101A20008093BC001092A30426CF85EC8093BC0069
:101A30001092A30480911704803230F4E0911704CF
:101A4000F0E0E950FC4F10826091170470E0E091E3
:101A50004B04F0914C0487EF93E009951092170422
:101A60000ACF1092A10434CF1092D0041092CF0468
:101A700088EE93E0A0E0B0E08093D1049093D2048C
:101A8000A093D304B093D40422E331E03093CE0486
:101A90002093CD0425EC30E03093DA042093D90470
:101AA00024EC30E03093DC042093DB0420EC30E0C5
:101AB0003093DE042093DD0421EC30E03093E00429
:101AC0002093DF0422EC30E03093E2042093E10421
:101AD00026EC30E03093E4042093E3041092E60413
:101AE0001092E7041092E8041092E90410929D0508
:101AF00010929C0580939E0590939F05A093A0054E
:101B0000B093A10584E491E090939B0580939A059E
:101B100064E272E086E596E00E94830A62E372E086
:101B200080E596E00E94830A6DE372E08AE496E025
:101B30000E94830A6BE472E084E496E00E94830AC8
:101B400062E572E08EE396E00E94830A0E945E01E5
:101B500060933A0670933B0680933C0690933D0653
:101B600010921B0610921C0610921D0610921E0663
:101B700010921F0610922006109221061092220643
:101B80001092230610922406109225061092260623
:101B900010922706109228061092290610922B0602
:101BA00010922A0610922D0610922C0610922F06E3
:101BB00010922E06109231061092300610923306C3
:101BC00010923206109235061092340610923706A3
:101BD0001092360610923906109238061092A80517
:101BE0001092AC051092AB051092AD05E2ECF5E059
:101BF0001082148213821582369685E0EE3FF80734
:101C0000B9F783E791E0909309068093080680E78F
:101C100091E090930B0680930A0694E090930C0653
:101C200083E080930D0627E731E030930706209389
:101C300006062AE030E030930F0620930E0624EFCC
:101C400031E0309311062093100610921406109282
:101C500013061092020610920306109204061092C8
:101C60000506109212062AE631E03093A70520936C
:101C7000A60588E38093150681E0809316062AE97D
:101C800035E030931A062093190626E532E03093AA
:101C9000990520939805109297051092830510924C
:101CA0006D0510926C0526E531E030936B052093AD
:101CB0006A0510927A052FEF209379051092780526
:101CC00010927B0527E220937505109276051092FD
:101CD0007705109274051092730590937C0592E03D
:101CE00090937D0580937E0580E180937F0580E25F
:101CF0008093800580E48093810580E8809382054D
:101D000050E040E063E08AE695E00C945D0378944F
:101D100084B5826084BD84B5816084BD85B58260F0
:101D200085BD85B5816085BD80916E0081608093A1
:101D30006E0010928100809181008260809381000A
:101D4000809181008160809381008091800081601A
:101D5000809380008091B10084608093B100809175
:101D6000B00081608093B00080917A00846080939D
:101D70007A0080917A00826080937A0080917A0064
:101D8000816080937A0080917A00806880937A00E5
:101D90001092C100E091DD04F091DE0482E08083C6
:101DA000E091D904F091DA041082E091DB04F09123
:101DB000DC0480E180831092E504E091E104F0917D
:101DC000E20486E08083E091DF04F091E00480810A
:101DD00080618083E091DF04F091E004808188607D
:101DE0008083E091DF04F091E0048081806880834B
:101DF000E091DF04F091E00480818F7D80838BE5AA
:101E000092E00E94C60862E370E080E090E00E94E9
:101E10002C010E94C00889E692E00E94C6080E9438
:101E2000C00887E992E00E94C60885EC92E00E9413
:101E3000C6088FEC92E00E94C6088CED92E00E94EA
:101E4000C60820E044E064E18AE695E00E941108BB
:101E500061E080E00E94840368EE72E08AE695E02B
:101E60000E94E20864EF71E080E090E00E942C01A3
:101E700060E08AE695E00E94F80764EF71E080E098
:101E800090E00E942C018AE695E00E94CC0364EF6A
:101E900071E080E090E00E942C0160E08AE695E02D
:101EA0000E94F80764EF71E080E090E00E942C014E
:101EB0008AE695E00E94CC030E94E40884EF92E059
:101EC0000E94C60862E370E080E090E00E942C016E
:101ED0008FE380931E06109250041092AA04109271
:101EE000CC040E948C0487EC91E090934E04809384
:101EF0004D0488EC91E090934C0480934B048091C6
:101F00001C0680931F0661E080911E060E94180641
:101F100080934F04811101C0FFCF8AE995E00E94B0
:101F2000F70680931C0606E211E076E1E72E71E0E9
:101F3000F72ED0E0C0E0CC24C394D12C20911D0614
:101F4000C6010C2E01C0880F0A94EAF7922F982B35
:101F500090931D0690911B068095892380931B0604
:101F60000E946607D8012D918D01F7018191919111
:101F70007F01A60102C0440F551F8A95E2F7CA01EE
:101F800090911B06222309F45CC1892B80931B06C8
:101F90000E94660764E670E080E090E00E942C01F9
:101FA0002196C330D10551F664E670E080E090E000
:101FB0000E942C0180911B068F7780931B060E9444
:101FC000660780E093E00E94C6088FE193E00E94DC
:101FD000C60862E370E080E090E00E942C0185E09A
:101FE00099E0909314068093130687E791E090930D
:101FF0000706809306066FEF7FEF86EA95E00E9462
:10200000BB0560911606613208F060E2809115060A
:102010000E9418061092500480934F048091190674
:1020200090911A06DC01ED91FC910284F385E02D7C
:1020300009959093180680931706809116068230B2
:10204000B8F08091190690911A06DC01ED91FC918F
:102050000284F385E02D099520E0382F8091170642
:1020600090911806822B932B909318068093170655
:1020700088E893E1909311068093100684E190E044
:1020800090930F0680930E068BE293E00E94C608A1
:1020900062E370E080E090E00E942C0165E070E077
:1020A00080E090E00E942C0180911B06826080936A
:1020B0001B060E94660765E070E080E090E00E94E9
:1020C0002C0180911B06846080931B060E9466078A
:1020D00065E070E080E090E00E942C0186E393E0F0
:1020E0000E94C6080E94C00881E493E00E94C608CE
:1020F0000E94C008812C912C5401839477247394FE
:1021000060E0262E60E0362E46E0642E80910101CC
:10211000811122C00E945E0100913A0610913B0697
:1021200020913C0630913D06601B710B820B930B96
:1021300069397A438105910578F0709201018091A7
:102140001B068E7F80931B060E9466076AE070E084
:1021500080E090E00E942C010E94790970921206A2
:102160000E945E0100910206109103062091040670
:1021700030910506AB01BC01401B510B620B730B88
:1021800080910E0690910F06B0E0A0E0512C8417CC
:102190009507A607B70708F46AC010921206E3E88D
:1021A000F5E001900020E9F7E858F54009F03DC05E
:1021B000809101018823C9F18FE693E00E94C6084F
:1021C000709200010E94790964EF71E080E090E074
:1021D0000E942C018091980590919905FC01319104
:1021E00020918305A4E8B5E04496311111C1211175
:1021F00017C1709251041092520470920001109213
:1022000001010E945E0160933A0670933B06809341
:102210003C0690933D068BE993E00E94C6080E941D
:10222000D5088BEB93E00E94C6082114310409F411
:102230006DCF0E943A02882309F468CF0E94000003
:1022400063CF80958923A2CE8881998180239123B1
:102250004BC080910A0690910B06E80EF91E41E0F2
:10226000F701608186EA95E00E94FD055394809114
:102270000D065816E8F5E52CF12CE0910A06F091D0
:102280000B06EE0DFF1D40E0608186EA95E00E949E
:10229000FD0595018401052C04C0000F111F221FAC
:1022A000331F0A94D2F7680100951095412C809154
:1022B0000C06481670F6C42DD0E0E0910806F091A7
:1022C0000906EC0FFD1F608186EA95E00E945F0819
:1022D0002496CC0FDD1FCA55DA4F892B09F0B4CFF5
:1022E000888199818C299D29998388834394DFCFA4
:1022F00006EA15E0E8018F8D98A1892B31F41C8E38
:102300002FEF3FEF3E8F2D8F19A2269642EE55E01C
:102310004C175D0781F7F12C80910C06F81608F038
:1023200052C0E12C8F2D90E0880F991FDC01A2553F
:10233000BA4F6D0120910D06E21608F042C0F60179
:10234000608171810E2C02C0769567950A94E2F740
:10235000F29E900111242E0D311DE6EAF5E080E099
:10236000458D568D2417350709F463C08F5F369667
:102370008A30B1F760FF23C0E6EAF5E090E080E044
:10238000448D411117C0E0910606F0910706E20F57
:10239000F31F4081689EF001699EF00D1124EA55FB
:1023A000FA4F448F368F258F10A2178E61E00E945E
:1023B0006A0105C0019636968A30910509F7E394C3
:1023C000B9CFF394A9CFF12CD80191968C918111BA
:1023D000F82E0A5F1F4F0C171D07B1F70E945E0110
:1023E000609302067093030680930406909305069B
:1023F000FF2009F4D2CE8091C705882309F4CDCE01
:102400008091C5059091C605019709F0C6CEC7CE4B
:10241000231306C031912D918E179F0709F0E5CE49
:102420007092530410925204709200018CEA93E06F
:10243000F4CE6170BCCF8EE396E00E947B0A84E408
:1024400096E00E947B0A8AE496E00E947B0A80E57F
:1024500096E00E947B0A86E596E00C947B0A2F9218
:102460003F924F925F926F927F928F929F92AF9224
:10247000BF92CF92DF92EF92FF920F931F93CF9371
:10248000DF93CDB7DEB7CA1BDB0B0FB6F894DEBF08
:102490000FBECDBF09942A88398848885F846E842E
:1024A0007D848C849B84AA84B984C884DF80EE8078
:1024B000FD800C811B81AA81B981CE0FD11D0FB681
:1024C000F894DEBF0FBECDBFED010895EE0FFF1FE4
:1024D0000590F491E02D09940F931F93CF93DF9310
:1024E0008230910510F482E090E0E0915E06F09178
:1024F0005F0630E020E0B0E0A0E0309799F42115CD
:10250000310509F44AC0281B390B24303105D8F5B0
:102510008A819B816115710589F1FB019383828317
:10252000FE0111C040815181028113814817590772
:10253000E0F04817590799F4109761F012960C9340
:10254000129713961C933296CF01DF91CF911F9172
:102550000F91089500935E0610935F06F4CF211546
:10256000310551F04217530738F0A901DB019A01F8
:10257000BD01DF01F801C1CFEF01F9CF90935F06F4
:1025800080935E06CDCFFE01E20FF31F81939193FE
:102590002250310939832883D7CF20915C063091AE
:1025A0005D06232B41F42091040130910501309305
:1025B0005D0620935C0620910201309103012115F4
:1025C000310541F42DB73EB7409106015091070106
:1025D000241B350BE0915C06F0915D06E217F307D2
:1025E000A0F42E1B3F0B2817390778F0AC014E5F83
:1025F0005F4F2417350748F04E0F5F1F50935D065D
:1026000040935C06819391939FCFF0E0E0E09CCFF4
:10261000CF93DF930097E9F0FC0132971382128287
:10262000A0915E06B0915F06ED0130E020E01097CA
:10263000A1F420813181820F931F20915C0630919B
:102640005D062817390709F061C0F0935D06E09335
:102650005C06DF91CF910895EA01CE17DF07E8F518
:102660004A815B819E0141155105B1F7E901FB8368
:10267000EA8349915991C40FD51FEC17FD0761F406
:10268000808191810296840F951FE9019983888347
:10269000828193819B838A83F0E0E0E012968D91A2
:1026A0009C9113970097B9F52D913C911197CD010D
:1026B0000296820F931F20915C0630915D062817C9
:1026C000390739F6309751F510925F0610925E0681
:1026D000B0935D06A0935C06BCCFD383C2834081D8
:1026E0005181840F951FC817D90761F44E5F5F4F62
:1026F00088819981480F591F518340838A819B812A
:10270000938382832115310509F0B0CFF0935F06E2
:10271000E0935E069ECFFD01DC01C0CF13821282E2
:10272000D7CFB0E0A0E0E7E9F3E10C9431128C01DF
:10273000009751F4CB010E946C128C01C801CDB7F7
:10274000DEB7E0E10C944D12FC01E60FF71F9C018F
:1027500022503109E217F30708F49DC0D901CD9149
:10276000DC911197C617D70798F0C530D10530F323
:10277000CE0104978617970708F3C61BD70B22973D
:10278000C193D1936D937C93CF010E940813D6CF50
:102790005B01AC1ABD0A4C018C0E9D1EA0915E0619
:1027A000B0915F06512C412CF12CE12C109731F5A2
:1027B00080915C0690915D068815990509F05CC0D2
:1027C0004616570608F058C0809102019091030107
:1027D000009741F48DB79EB74091060150910701D3
:1027E000841B950BE817F90708F055C0F0935D06B8
:1027F000E0935C06F90171836083A0CF8D919C9179
:10280000119712966C90129713967C901397A815B7
:10281000B90559F56C0142E0C40ED11CCA14DB04A1
:1028200020F1AC014A195B09DA011296159780F084
:102830006282738251834083D9016D937C93E1144A
:10284000F10471F0D7011396FC93EE93129776CFB3
:1028500022968C0F9D1FF90191838083F301EFCFA6
:10286000F0935F06E0935E0669CF4816590608F4B8
:102870002C017D01D3019ACFCB010E946C127C0107
:10288000009749F0AE01B8010E945314C8010E949C
:102890000813870153CF10E000E050CF81E090E0B3
:1028A000F8940C946314FB01DC0102C001900D92BA
:1028B00041505040D8F70895FB01DC0101900D9282
:1028C0000020E1F7089510E0C2E6D0E004C0FE0168
:1028D0000E9466122196C336D107C9F7F894FFCF3C
:1028E00001010000600680000040145400401050B8
:1028F0006B006C006D00000001000200030004008A
:1029000005000600070000010101010101010000AE
:1029100000007002D001FD01BD022E020C02200257
:102920000000000037070A075C08E706C901F70640
:10293000E806000000007103D0015C08640411087F
:102940005D03F807D90700000000C601FD055F0818
:102950000200040106050331323334353637383985
:102960002A30230D0A0050617373776F72642072EE
:102970006573657400456E7465722020436F6465ED
:10298000002A202D20436C656172004576656E74C7
:102990002048617070656E65640054617374653AB7
:1029A0002000202D3E20436F64653A20004861736B
:1029B00068204E6F74205573656400636C656172A6
:1029C000656400434C4541524544004C43442072E9
:1029D000656672657368005570646174654C434444
:1029E00000414343455353004752414E5445440030
:1029F00046757365626F78206F70656E0044454E52
:102A00004945440043455F53545F46757365626FA3
:102A1000780031302E30352E32303231007665720A
:102A200073696F6E20312E305354004272465553F5
:102A300045004655530032353137002168656164E1
:102A400065725F626567696E003D3D3D3D3D3D3DA0
:102A50003D3D3D3D3D3D3D46757365426F782032BD
:102A6000302E30382E323031393D3D3D3D3D3D3DFB
:102A70003D3D3D3D3D3D003D3D3D3D3D3D3D3D3DC3
:102A80003D3D3D3D3D3D3D3D3D3D53455455503D16
:102A90003D3D3D3D3D3D3D3D3D3D3D3D3D3D3D3D66
:102AA0003D3D3D3D003D3D5356312E343D3D003DC5
:102AB0003D6E6F2046757365733D3D00216865610D
:102AC0006465725F656E64005374617274696E67E9
:102AD0002E2E2E004C43443A20202020206F6B00E5
:102AE000313256205065726970686572616C205091
:102AF0006F77657220537570706C79204F4E00525D
:102B0000656C61793A2020206F6B004B65797061AC
:102B1000643A206F6B002173657475705F656E6435
:102B2000003D3D3D3D3D3D3D3D3D3D3D3D3D3D3D12
:102B30003D3D3D3D53544152543D3D3D3D3D3D3D68
:102B40003D3D3D3D3D3D3D3D3D3D3D3D3D3D0034FB
:102B5000205A65696368656E2065696E67656265A0
:102B600062656E202D20756562657270727565668E
:102B7000652050617373776F727400436F72726572
:102B800063742070617373776F72640057726F6E35
:102B9000672070617373776F726400436865636B5D
:102BA0002070617373776F726420446F6E650000EC
:00000001FF
