:100000000C94A7000C94CF000C94CF000C94BF0D5F
:100010000C949A0D0C94750D0C94CF000C94CF0099
:100020000C94CF000C94CF000C94CF000C94CF0014
:100030000C94CF000C94CF000C94CF000C94CF0004
:100040000C94D30C0C94CF000C94430D0C941D0D08
:100050000C94CF000C94CF000C94CF000C94CF00E4
:100060000C94E40D0C94CF00000000002300260047
:100070002900206465766963652873292E00466F20
:10008000756E642000202D3E2052656C6179002041
:100090002D3E20446973706C617900202D3E20490B
:1000A0006E7075742D4932432D626F617264002049
:1000B0002D3E204C43442D4932432D426F617264E2
:1000C00000202D3E204C4344002900202830780099
:1000D000466F756E6420616464726573733A2000C4
:1000E0005363616E6E696E672E2E2E004932432077
:1000F0007363616E6E65723A000000000024002791
:10010000002A0000000000250028002B0004040441
:1001100004040404040202020202020303030303B0
:10012000030102040810204080010204081020018D
:10013000020408102000000008000201000003046F
:1001400007000000000000000000030F8D151124BF
:100150001FBECFEFD8E0DEBFCDBF27E0A8E7B4E0F9
:1001600001C01D92AC34B207E1F714E0A0E0B1E0A9
:10017000E8E0F0E302C005900D92A837B107D9F787
:1001800010E0C6EAD0E004C02197FE010E94FA15F3
:10019000C53AD107C9F70E9424100C94F7170C94A4
:1001A00000000895089596E0899FD0011124AC5A6B
:1001B000B94F90967C936E935F9791E091969C9344
:1001C0009197E091C106F091C2069091C0069923E3
:1001D00039F0309751F0811108C080917006099470
:1001E000309719F05C968C91FACF0895833081F0A6
:1001F00028F4813099F08230A9F008958730A9F071
:100200008830C9F08430B1F4809180008F7D03C0C4
:10021000809180008F7780938000089584B58F77D8
:1002200084BD089584B58F7DFBCF8091B0008F771A
:100230008093B00008958091B0008F7DF9CF1F9317
:10024000CF93DF93282F30E0F901EB5CFE4F8491D0
:10025000F901EF5DFE4FD491F901E35FFE4FC491C8
:10026000CC23A9F0162F81110E94F600EC2FF0E0AC
:10027000EE0FFF1FED5FFE4FA591B4918FB7F8947D
:10028000EC91111108C0D095DE23DC938FBFDF9174
:10029000CF911F910895DE2BF8CFCF93DF9390E09D
:1002A000FC01EF5DFE4F2491835F9E4FFC01849122
:1002B0008823C9F090E0880F991FFC01E750FF4F99
:1002C000A591B491FC01ED5FFE4FC591D4916111F0
:1002D0000DC09FB7F8948C91209582238C938881D0
:1002E000282328839FBFDF91CF910895623051F476
:1002F0009FB7F8943C91822F809583238C93E8815B
:100300002E2BEFCF8FB7F894EC912E2B2C938FBF21
:10031000EACF3FB7F8948091010590910205A09132
:100320000305B091040526B5A89B05C02F3F19F021
:100330000196A11DB11D3FBFBA2FA92F982F882765
:10034000BC01CD01620F711D811D911D42E0660F40
:10035000771F881F991F4A95D1F708958F929F9212
:10036000AF92BF92CF92DF92EF92FF926B017C012E
:100370000E9489014B015C01C114D104E104F10424
:10038000B9F00E948901681979098A099B09683EB8
:1003900073408105910580F321E0C21AD108E1087C
:1003A000F10888EE880E83E0981EA11CB11CE4CFF2
:1003B000FF90EF90DF90CF90BF90AF909F908F9085
:1003C00008952FB7F8946091FD047091FE04809118
:1003D000FF04909100052FBF08950F931F93CF93B3
:1003E000DF93C82FD62F86E0C89FF0011124EC5A66
:1003F000F94F11A2878D90A181309105F1F058F04D
:1004000082309105F1F1039709F440C0DF91CF915B
:100410001F910F9108956623C9F361E070E08C2F5E
:100420000E94D3000E94E1016093AC067093AD0678
:100430008093AE069093AF06E9CF0E94E101009150
:10044000AC061091AD062091AE063091AF06AB011F
:10045000BC01401B510B620B730B8091BE06909147
:10046000BF06B0E0A0E084179507A607B70748F4D9
:1004700062E070E08C2FDF91CF911F910F910C946F
:10048000D30063E070E0D111C1CFF4CF70E060E041
:10049000F1CF0895AF92BF92CF92DF92EF92FF9289
:1004A0000F931F93CF93DF936C017B018B01040F9C
:1004B000151FEB015E01AE18BF08C017D10759F038
:1004C0006991D601ED91FC910190F081E02DC6017A
:1004D0000995892B79F7C501DF91CF911F910F9174
:1004E000FF90EF90DF90CF90BF90AF900895FC0108
:1004F000538D448D252F30E0842F90E0821B930B89
:10050000541710F0CF96089501970895FC01918D2E
:10051000828D981761F0A28DAE0FBF2FB11D5D9631
:100520008C91928D9F5F9F73928F90E008958FEFD3
:100530009FEF0895FC01918D828D981731F0828D87
:10054000E80FF11D858D90E008958FEF9FEF0895DE
:10055000FC01918D228D892F90E0805C9F4F821B42
:1005600091098F73992708958BE795E00E94A8025F
:1005700021E0892B09F420E0822F089580E090E0AB
:10058000892B29F00E94B40281110C940000089577
:10059000FC01A48DA80FB92FB11DA35ABF4F2C91F8
:1005A000848D90E001968F739927848FA689B789EF
:1005B0002C93A089B1898C91837080648C93938DE6
:1005C000848D981306C00288F389E02D80818F7D89
:1005D00080830895EF92FF920F931F93CF93DF9341
:1005E000EC0181E0888F9B8D8C8D98131AC0E8896F
:1005F000F989808185FF15C09FB7F894EE89FF893E
:100600006083E889F98980818370806480839FBFDB
:1006100081E090E0DF91CF911F910F91FF90EF90DB
:100620000895F62E0B8D10E00F5F1F4F0F731127EB
:10063000E02E8C8D8E110CC00FB607FCFACFE88926
:10064000F989808185FFF5CFCE010E94C802F1CFE4
:10065000EB8DEC0FFD2FF11DE35AFF4FF0829FB79A
:10066000F8940B8FEA89FB8980818062CFCF0F934A
:100670001F93CF93DF938C01D0E0C0E0F801EC0F23
:10068000FD1F6491662341F08BE795E00E94EA022A
:10069000892B11F02196F2CFCE01DF91CF911F91DE
:1006A0000F910895CF93DF93EC01888D8823B9F0E3
:1006B000AA89BB89E889F9898C9185FD03C080816D
:1006C00086FD0DC00FB607FCF7CF8C9185FFF2CFEA
:1006D000808185FFEDCFCE010E94C802E9CFDF9176
:1006E000CF910895CF93DF9370E0FB01EB5CFE4F59
:1006F0008491FB01EF5DFE4FD491635F7E4FFB0160
:10070000C491CC23A1F081110E94F600EC2FF0E0FF
:10071000EE0FFF1FE859FF4FA591B491EC91ED2327
:1007200081E090E009F480E0DF91CF91089580E0CE
:1007300090E0FACF862F642F0C941F01862F642F30
:100740000C944D018091090590910A05891B990B24
:100750000895CF93DF93FC011082118212821382DD
:10076000148215821682EC012796DC011F961992DD
:10077000AC17BD07E1F77F961D921D92EA17FB07A4
:10078000D9F7DF91CF91089590E0FC01EE0FFF1FA4
:10079000E459FF4FA591B4912C91FC01E051FB4F1E
:1007A00030812083880F991FFC01EF5EFE4F01907E
:1007B000F081E02D8081089521E001C0220F6A952B
:1007C000EAF7DC011C962C931C971A965C934E93C7
:1007D0001997ED91FC910484F585E02D60E0099472
:1007E000DC01ED91FC910684F785E02D41E009954F
:1007F00081E090E00895DC01ED91FC910684F7859D
:10080000E02D40E009940F931F93CF93DF93CDB772
:10081000DEB728970FB6F894DEBF0FBECDBF0091AC
:10082000090110910A0120910B0130910C010D83F7
:100830001E832F83388700910D0110910E012091A6
:100840000F013091100109831A832B833C8390910F
:100850001F06691710F06FEF690F262F30E04091E7
:1008600020062C0F3D1FF901403199F4943089F492
:100870006181680F606888E196E028960FB6F89469
:10088000DEBF0FBECDBFDF91CF911F910F910C94B2
:10089000FB036581EECFDC01ED91FC910484F585CD
:1008A000E02D6FEF099461E00E94FB038BE39FE171
:1008B0000197F1F708950F931F93CF93DF93EC0106
:1008C000423018F08C8188608C834F8368872223A4
:1008D00029F0413019F48C8184608C8364E670E0E7
:1008E00080E090E00E94AE016C8164FD52C0E8811E
:1008F000F9810684F785E02D42E063E0CE01099599
:100900008BE496E40197F1F7E881F9810684F78595
:10091000E02D42E063E0CE01099503E512E0C80155
:100920000197F1F7E881F9810684F785E02D42E02F
:1009300063E0CE010995C8010197F1F7E881F981DB
:100940000684F785E02D42E062E0CE010995C801FA
:100950000197F1F76C816062CE010E94FB038BEE80
:1009600090E00197F1F784E08D836CE0CE010E9466
:10097000FB03CE010E94530482E08E8366E0CE0129
:100980000E94FB03CE01DF91CF911F910F910C9438
:100990004B046062CE010E94FB038BE496E4019756
:1009A000F1F76C816062CE010E94FB0303E512E067
:1009B000C8010197F1F76C816062CE010E94FB03D0
:1009C000C6CF08950895089520919D04260F3327DA
:1009D000331F21323105ECF420915105FC0190E0E8
:1009E00080E0243069F082E00895A0919D04219177
:1009F000AC0143585B4FA40FB52FB11D2C9301964A
:100A0000861798F380919D04680F60939D0480E0A1
:100A1000089581E008951092510581E0809350057A
:100A200010922B0561E082E10E941F0161E083E1E9
:100A30000E941F01E9EBF0E080818E7F808380813E
:100A40008D7F808388E48093B80085E48093BC0028
:100A5000089510920A0510920905109258051092F7
:100A60007A050E940B0581ED90E090930805809334
:100A7000070582ED90E090930605809305050895A3
:100A8000CF93DF9391E090937C048823B9F0C091D9
:100A9000B800D091BA008091BC008A7B8093BC00E2
:100AA00060E082E10E941F0160E083E10E941F017B
:100AB0000E940B05D093BA00C093B800DF91CF918C
:100AC00008958F929F92AF92BF92CF92DF92EF9252
:100AD000FF920F931F93CF93DF93D0917A05D1327A
:100AE00008F0D7C0182FC09179050E9489016B01C9
:100AF0007C018091510581116BC082E0809351058A
:100B0000109350058FEF80934F0510924E05D093B0
:100B10004D05A9E5B5E0EDE2F5E080E0D81391C020
:100B200010922C0580912C05CC0FC82BC0932C055E
:100B300080912B05813009F088C010922B050E940E
:100B400089016B017C0180912C058093BB00809111
:100B5000530590915405A0915505B0915605892BE8
:100B60008A2B8B2BA1F00E948901009153051091D3
:100B7000540520915505309156056C197D098E0953
:100B80009F09061717072807390708F442C0809104
:100B9000BC0083FDD8CF85EC8093BC000E94890106
:100BA0006B017C0180915105823009F450C0809125
:100BB0004F058F3F09F46FC080914F05803209F4D3
:100BC0006CC080914F05803309F469C084E026C071
:100BD0008091530590915405A0915505B09156050B
:100BE000892B8A2B8B2B09F484CF0E94890180905A
:100BF000530590905405A0905505B09056056C197A
:100C00007D098E099F0986169706A806B90608F081
:100C100070CF809152050E94400585E010925805E2
:100C200010927A0510925705DF91CF911F910F9185
:100C3000FF90EF90DF90CF90BF90AF909F908F90FC
:100C400008959D9191938F5F69CF85EEA5CF809197
:100C5000530590915405A0915505B0915605892BE7
:100C60008A2B8B2B09F49ECF0E948901009153059A
:100C70001091540520915505309156056C197D0948
:100C80008E099F09061717072807390708F08ACF2A
:100C9000C0CF81E0C3CF80E0C1CF82E0BFCF83E08F
:100CA000BDCFEF92FF920F931F93CF93DF93EC0191
:100CB0008B017C0183E7E80EF11CD7018D919C919B
:100CC000FE01E159FF4F208131E030935705209319
:100CD00079051092580510927A05DC01ED91FC918E
:100CE0000190F081E02D0995FE01E059FF4F8081D0
:100CF000823058F0F70180819181DC01ED91FC9107
:100D00000190F081E02D612F099581E00E9461053D
:100D1000CF58DF4F08831983DF91CF911F910F9137
:100D2000FF90EF90089521E030E002C0220F331FC2
:100D30006A95E2F7FC01EF58FF4F6081718144230F
:100D400041F0262B372B31832083608171810C94F5
:100D500051062095309526233723F5CFCF92DF9289
:100D6000EF92FF920F931F93CF93DF93D82FC62F4D
:100D7000613208F098C00E9489016B017C0180916A
:100D8000510581116BC081E080935105809350051E
:100D90009FEF90934F0510924E059C0F90934D0539
:100DA00080932C0580912C05DD0FD82BD0932C053A
:100DB00080912B05813009F078C010922B050E949C
:100DC00089016B017C0180912C058093BB0080918F
:100DD000530590915405A0915505B0915605892B66
:100DE0008A2B8B2BA1F00E94890100915305109151
:100DF000540520915505309156056C197D098E09D1
:100E00009F09061717072807390708F448C080917B
:100E1000BC0083FDD8CF85EC8093BC000E94890183
:100E20006B017C0180915105813009F440C08091B3
:100E30004E058C1710F4C0914E05EDE2F5E0ABE0E5
:100E4000B5E080E08C1355C08C2FDF91CF911F91BE
:100E50000F91FF90EF90DF90CF9008958091530510
:100E600090915405A0915505B0915605892B8A2B78
:100E70008B2B09F484CF0E948901009153051091B6
:100E8000540520915505309156056C197D098E0940
:100E90009F09061717072807390708F070CF8091B8
:100EA00052050E944005C0E0CFCF85EEB5CF8091BE
:100EB000530590915405A0915505B0915605892B85
:100EC0008A2B8B2B09F4AECF0E9489010091530528
:100ED0001091540520915505309156056C197D09E6
:100EE0008E099F09061717072807390708F09ACFB8
:100EF000D6CF91919D938F5FA5CF0895E0910A057C
:100F000080910905E81730F4F0E0E55FFA4F808141
:100F100090E008958FEF9FEF089590910A058091DA
:100F200009052FEF3FEF981748F4E92FF0E0E55F50
:100F3000FA4F208130E09F5F90930A05C901089520
:100F4000CF92DF92EF92FF920F931F93CF93DF9395
:100F50007C01CB018A0120915705222389F0EB0106
:100F60006B01C40ED51ECC15DD0569F06991D70162
:100F7000ED91FC910190F081E02DC7010995F3CF2F
:100F8000642F0E94E404C801DF91CF911F910F915B
:100F9000FF90EF90DF90CF900895CF93DF931F9253
:100FA000CDB7DEB76983209157052223F9F0209150
:100FB0007A05203258F021E030E0FC0133832283AF
:100FC00090E080E00F90DF91CF91089580915805D7
:100FD000E82FF0E0E75AFA4F998190838F5F809372
:100FE000580580937A0581E090E0ECCF61E0CE0176
:100FF00001960E94E404F7CFFC0191816281808117
:10100000238131E0309357052093790510925805DC
:1010100010927A0560956923682B88E496E00E9417
:10102000CD0781E00C946105FC0123812223F9F0B6
:10103000262F6181609562236083828191E0909385
:101040005705809379051092580510927A0588E427
:1010500096E00E94CD0781E00E946105282F30E0D4
:1010600081E090E0232B11F090E080E0089530E0E3
:1010700020E0F6CFEF92FF920F931F93CF938C0156
:10108000FC0184E0C0E0262F30E060FF02C09589BB
:10109000C92BB90175956795815031968111F3CFB0
:1010A000413011F4F8014489F8016585C62BC42B41
:1010B0007801FEE0EF0EF11CF80162896C2BC7018C
:1010C0000E941408F801628960956C23C701CF91D2
:1010D0001F910F91FF90EF900C9414080F931F93A2
:1010E000CF93DF93062F0F70423041F440E0602F22
:1010F000DF91CF911F910F910C943A08142FEC01BE
:1011000070E084E0759567958A95E1F7CE010E94BD
:101110003A08412F602FCE01EBCFFC018485882354
:10112000A1F0218532852115310521F4611107C017
:10113000158606C021303105D9F76111F9CF8587B1
:101140006585CF010E960C9414080895EF92FF92D6
:101150000F931F93CF93DF93EC01062FF42EE22E13
:101160008B85888B0E942905888911E0109357058B
:10117000809379051092580510927A0581E00E94BB
:10118000610581111CC0198B88E496E00E948D07CF
:101190008E878989882339F01F861C8260E0CE0102
:1011A0000E960E9414082E2D4F2D602FCE01DF9138
:1011B000CF911F910F91FF90EF900C945B04198ACF
:1011C000E8CF90E080E00895CF93DF9365E070E092
:1011D00080E090E00E94AE01C7E0D7E088818260A5
:1011E0008883CE010E94FC0765E070E080E090E01B
:1011F0000E94AE01888184608883CE010E94FC0732
:1012000065E070E080E090E00E94AE0181E08093B4
:101210000201DF91CF910895CF92DF92EF92FF927A
:101220000F931F93CF93DF93EC0181E090E07C015B
:1012300002C0EE0CFF1C6A95E2F76E0180E7C80E53
:10124000D11CD6016C91613208F060E2FE01E159D7
:10125000FF4F80810E94AE0610920A058093090517
:10126000CD58DF4F88819981DC01ED91FC9102849A
:10127000F385E02D09958C01F6018081823060F0C4
:1012800088819981DC01ED91FC910284F385E02D48
:10129000099520E0022B182B0E211F2181E090E000
:1012A0000E151F0511F090E080E0DF91CF911F91A6
:1012B0000F91FF90EF90DF90CF900895CF93DF9341
:1012C000EC0189818C8361E08B810E94AE061092D3
:1012D0000A0580930905811101C0FFCF88E496E0DB
:1012E0000E948D078983DF91CF910895EF92FF923D
:1012F0000F931F93CF93DF9365E070E080E090E061
:101300000E94AE0189E38093CC060E94290589ECF6
:1013100096E00E945E09D0E0C0E001E010E090910C
:10132000CB0678010C2E01C0EE0C0A94EAF72E2DA4
:10133000209592239093CB068091C90682238093B7
:10134000C90689EC96E00E94FC078091C9068E29A7
:101350008093C90689EC96E00E94FC072196C8306C
:10136000D105E9F664E670E080E090E00E94AE010D
:1013700089E38093EB060E94290588EE96E00E949F
:101380005E0965E070E080E090E00E94AE01C4E399
:10139000D1E00EE311E0EE24E394F12C89919991D0
:1013A0002091EA06A70102C0440F551F8A95E2F773
:1013B000CA018095922F98239093EA069091E806AF
:1013C00089238093E80688EE96E00E94FC0788EE69
:1013D00096E00E945E098091E90665E070E080E099
:1013E00090E00E94AE010C171D07C1F681E0DF916D
:1013F000CF911F910F91FF90EF900895FB01019005
:101400000020E9F73197AF01461B570BDC01ED9146
:10141000FC910280F381E02D099467E971E08BE78C
:1014200095E00C94FE09CF93DF930E943703EC0103
:101430000E940D0A8C0F9D1FDF91CF9108958F920E
:101440009F92AF92BF920F931F93CF93DF93CDB72D
:10145000DEB7A1970FB6F894DEBF0FBECDBF19A2BD
:10146000423008F44AE08E010F5D1F4F842E912C0C
:10147000B12CA12CA50194010E94D815E62FB90129
:10148000CA01EA3004F5E05DD801EE938D01232B0B
:10149000242B252B79F790E080E0109729F0BD01EF
:1014A0008BE795E00E94FE09A1960FB6F894DEBF87
:1014B0000FBECDBFDF91CF911F910F91BF90AF9025
:1014C0009F908F900895E95CDFCFCF92DF92EF92EB
:1014D000FF92CF93DF9397FF1BC06B017C016DE2FE
:1014E0008BE795E00E94EA02EC0166277727CB01A3
:1014F0006C197D098E099F094AE00E941F0A8C0F12
:101500009D1FDF91CF91FF90EF90DF90CF900895D6
:101510004AE0DF91CF91FF90EF90DF90CF900C9455
:101520001F0ACF93DF93BC018BE795E00E94FE0971
:10153000EC010E940D0A8C0F9D1FDF91CF91089541
:101540001092F40481E080930001E1E3F6E0148A54
:1015500010828AE991E00C94910A0C94FE0988E1CA
:1015600096E00E94530462E088E196E00E94FB034B
:101570008BE39FE10197F1F760E084E00E940304B0
:1015800069EA71E088E196E00E94AD0A63E080E0DC
:101590000E94030465EB71E088E196E00C94AD0ACB
:1015A000CF93C82F8FEB91E00E94910A88E196E0DB
:1015B0000E944B0480917306909174060197E1F5A7
:1015C0006EEC71E08BE795E00E94AD0A6C2F8BE723
:1015D00095E00E94EA0266ED71E08BE795E00E94DB
:1015E000AD0A61E376E08BE795E00E94AD0A6C2FCF
:1015F0008BE795E00E94EA020E940D0A81E0809349
:10160000F40480930001C332C9F0CA32E1F0809142
:101610000101882389F0E0914506E33169F081E01A
:101620008E0F80934506F0E0EF5CF94FC083E82F02
:10163000F0E0EF5CF94F1082CF91089581EE91E0D8
:10164000CF910C94910A8FEE91E00E94910A0E9432
:10165000A00A80910101882379F388E196E00E9435
:10166000530461E086E00E94030467EF71E088E1C3
:1016700096E00E94AD0A6EEE72E080E090E00E947B
:10168000AE01CF910C94AF0AEF92FF920F931F938C
:10169000CF930E94E1010091780410917904209188
:1016A0007A0430917B04601B710B820B930B6137C2
:1016B00077418105910558F08091F404811107C0AC
:1016C00081E0809300018FEF91E00E94910A809168
:1016D0000001882309F4BBC08091010181110E949F
:1016E000AF0A0E94E10160937804709379048093BB
:1016F0007A0490937B04109200018BE092E00E94A8
:10170000910A8091F404882391F188E196E00E9487
:101710004B04809101018823F9F001E316E0C8E051
:101720007801F70101900020E9F7CF01825396403C
:101730009801215336402817390770F461E08C2F47
:101740000E940304F80161918F0188E196E00E94F4
:10175000F003CF5FC43129F765E070E080E090E0EE
:10176000CF911F910F91FF90EF900C94AE0180915B
:10177000F3048823E1F188E196E00E94530461E0DC
:1017800087E00E94030465E172E088E196E00E9430
:10179000AD0A62E086E00E9403046CE172E088E139
:1017A00096E00E94AD0A68EE73E080E090E00E944F
:1017B000AE010E94760964E670E080E090E00E944D
:1017C000AE018091070781608093070787E097E06B
:1017D0000E94FC0784E292E00E94910A64E670E0B5
:1017E00080E090E00E94AE011092F304B5CF8091AA
:1017F000F504882321F188E196E00E94530461E01A
:1018000087E00E94030465E172E088E196E00E94AF
:10181000AD0A62E087E00E94030461E372E088E1C0
:1018200096E00E94AD0A68EE73E080E090E00E94CE
:10183000AE0181E0809300011092F5048DCF80917C
:101840000101882309F488CF0E94AF0A85CF0E9446
:10185000E101009178041091790420917A0430918B
:101860007B04601B710B820B930B693873418105FC
:10187000910508F471CF0E94A00A809101018111A5
:101880000E94AF0A60E088E196E00E948D0864CF74
:101890000E94E217FC0180819181009711F00C9465
:1018A0009C160895EF92FF920F931F93CF93DF93AF
:1018B000EC017B01198218821B821A821D821C8214
:1018C000FB0101900020E9F731978F01061B170BF0
:1018D000B8016F5F7F4F90E080E00E94251700976E
:1018E000B9F0998388831B830A832C813D81232B44
:1018F00011F4FC0110821D830C83B701888199814A
:10190000DF91CF911F910F91FF90EF900C94F01702
:1019100088819981009711F00E949C161982188283
:101920001D821C821B821A82DF91CF911F910F9121
:10193000FF90EF90089585ED8093BC008091530552
:1019400090915405A0915505B09156050796A11D9B
:10195000B11D23E0B695A795979587952A95D1F760
:101960002091BC0024FD03C01092510508954091C0
:101970005305509154056091550570915605452BBE
:10198000462B472B69F30097A105B10541F025E3EC
:101990002A95F1F700000197A109B109E1CF8091E3
:1019A00052050C9440051F920F920FB60F9211240E
:1019B0002F933F938F939F93AF93BF938091FD0499
:1019C0009091FE04A091FF04B09100053091FC04B9
:1019D00023E0230F2D3758F50196A11DB11D20934B
:1019E000FC048093FD049093FE04A093FF04B09345
:1019F00000058091010590910205A0910305B09129
:101A000004050196A11DB11D809301059093020567
:101A1000A0930305B0930405BF91AF919F918F915F
:101A20003F912F910F900FBE0F901F90189526E8B1
:101A3000230F0296A11DB11DD2CF1F920F920FB698
:101A40000F9211242F933F934F935F936F937F9344
:101A50008F939F93AF93BF93EF93FF938BE795E0A3
:101A60000E94C802FF91EF91BF91AF919F918F911A
:101A70007F916F915F914F913F912F910F900FBE8A
:101A80000F901F9018951F920F920FB60F9211246E
:101A90002F938F939F93EF93FF93E0918B05F0919A
:101AA0008C058081E0919105F091920582FD1BC02B
:101AB0009081809194058F5F8F7320919505821797
:101AC00041F0E0919405F0E0E558FA4F958F80934E
:101AD0009405FF91EF919F918F912F910F900FBEE1
:101AE0000F901F9018958081F4CF1F920F920FB620
:101AF0000F9211242F933F934F935F936F937F9394
:101B00008F939F93AF93BF93EF93FF9382E00E94D5
:101B1000C403FF91EF91BF91AF919F918F917F91FE
:101B20006F915F914F913F912F910F900FBE0F904A
:101B30001F9018951F920F920FB60F9211242F939A
:101B40003F934F935F936F937F938F939F93AF9345
:101B5000BF93EF93FF9381E00E94C403FF91EF9145
:101B6000BF91AF919F918F917F916F915F914F91B5
:101B70003F912F910F900FBE0F901F9018951F92BD
:101B80000F920FB60F9211242F933F934F935F93B1
:101B90006F937F938F939F93AF93BF93EF93FF9335
:101BA00080E00E94C403FF91EF91BF91AF919F919C
:101BB0008F917F916F915F914F913F912F910F90F6
:101BC0000FBE0F901F9018951F920F920FB60F9295
:101BD00011242F933F934F935F936F937F938F9332
:101BE0009F93AF93BF93EF93FF938091B900887F4A
:101BF000803609F44AC0F0F5883209F4A7C018F518
:101C0000803109F49BC0B8F4882309F4F9C0883006
:101C100009F494C0FF91EF91BF91AF919F918F9183
:101C20007F916F915F914F913F912F910F900FBED8
:101C30000F901F901895883109F488C0803251F7B1
:101C400080934F0514C0803409F49DC040F4803364
:101C5000B9F38833F9F680934F0585ECB0C0803531
:101C600009F485C0883509F496C0883499F60E9435
:101C70009B0CD0CF883909F48CC038F5883729F00F
:101C800050F4883611F0803729F683E080935105AF
:101C90001092BF0457C0883809F47BC0803919F00E
:101CA000803809F0B7CF8091BF04803208F071C04E
:101CB000E091BF0481E08E0F8093BF048091BB0050
:101CC000F0E0E156FB4F80833DC0803B39F0E0F40B
:101CD000803A09F479C0883A09F09CCF84E0809377
:101CE000510510929E0410929D04E0910705F09119
:101CF0000805099580919D0481110FC081E08093B2
:101D00009D0410927D0409C0803C09F4A6CF883C54
:101D100009F4A3CF883B09F07DCFE0919E0481E0D8
:101D20008E0F80939E04F0E0E358FB4F80818093F8
:101D3000BB0090919E0480919D0429C080912C0548
:101D40008093BB0085EC8093BC0064CF90914E05DE
:101D500080914D05981758F5E0914E0581E08E0F62
:101D600080934E05F0E0E35DFA4F8081E9CFE0918A
:101D70004E0581E08E0F80934E058091BB00F0E010
:101D8000E35DFA4F808390914E0580914D05981741
:101D9000C8F285E8D8CFE0914E0581E08E0F8093A0
:101DA0004E058091BB00F0E0E35DFA4F80838091A7
:101DB000500581115CCF81E080932B0584EA8093EC
:101DC000BC001092510526CF85EC8093BC00109288
:101DD00051058091BF04803230F4E091BF04F0E0FF
:101DE000E156FB4F10826091BF0470E0E091050561
:101DF000F09106058FE994E009951092BF040ACF8F
:101E000010924F0534CF10927E0510927D0588EE1A
:101E100093E0A0E0B0E080937F0590938005A093CD
:101E20008105B093820526E431E030937C05209350
:101E30007B0525EC30E0309388052093870524EC62
:101E400030E030938A052093890520EC30E0309310
:101E50008C0520938B0521EC30E030938E05209388
:101E60008D0522EC30E03093900520938F0526EC11
:101E700030E03093920520939105109294051092D2
:101E80009505109296051092970510924B061092A8
:101E90004A0680934C0690934D06A0934E06B0934D
:101EA0004F0688E591E0909349068093480668E3E1
:101EB00072E082E497E00E94520C66E472E08CE3E8
:101EC00097E00E94520C61E572E086E397E00E9481
:101ED000520C6FE572E080E397E00E94520C66E6D8
:101EE00072E08AE297E00E94520C0E94E101609346
:101EF000260770932707809328079093290787E088
:101F000097E00E94A90388EE96E00E94A90389EC5D
:101F100096E00E94A9031092560610925A0610925B
:101F2000590610925B06E0E7F6E0108214821382F5
:101F30001582369686E0EC3AF807B9F787E891E023
:101F40009093B7068093B60684E891E09093B90623
:101F50008093B80694E09093BA0683E08093BB0622
:101F60002BE831E03093B5062093B4062AE030E048
:101F70003093BD062093BC0624EF31E03093BF06BA
:101F80002093BE061092C2061092C1061092B006AF
:101F90001092B1061092B2061092B3061092C006CB
:101FA0002EE731E0309355062093540688E3809362
:101FB000C30681E08093C40628E436E03093C80667
:101FC0002093C7062AE632E0309347062093460660
:101FD000109245061092310610921B0610921A06B6
:101FE0002AE631E03093190620931806109228064D
:101FF0002FEF20932706109226061092290627E23B
:102000002093230610922406109225061092220691
:102010001092210690932A0692E090932B068093CB
:102020002C0680E180932D0680E280932E0680E4CA
:1020300080932F0680E88093300650E040E063E014
:1020400088E196E00C94DC03789484B5826084BDCA
:1020500084B5816084BD85B5826085BD85B58160AC
:1020600085BD80916E00816080936E00109281002A
:1020700080918100826080938100809181008160E5
:1020800080938100809180008160809380008091A6
:10209000B10084608093B1008091B0008160809332
:1020A000B00080917A00846080937A0080917A00F9
:1020B000826080937A0080917A00816080937A00B8
:1020C00080917A00806880937A001092C100E0913C
:1020D0008B05F0918C0582E08083E0918705F0917B
:1020E00088051082E0918905F0918A0580E180835E
:1020F00010929305E0918F05F091900586E0808322
:10210000E0918D05F0918E05808180618083E09162
:102110008D05F0918E05808188608083E0918D052A
:10212000F0918E05808180688083E0918D05F0912B
:102130008E0580818F7D80838FE692E00E94910AD8
:1021400062E370E080E090E00E94AE010E940D0A20
:102150008DE792E00E94910A0E940D0A8BEA92E0BC
:102160000E94910A89ED92E00E94910A83EE92E02A
:102170000E94910A8FEF92E00E94910A60E070E065
:10218000CB010E94650A0E940D0A86E193E00E943D
:10219000910A0E940D0A82E293E00E94910A20E0D7
:1021A00044E064E188E196E00E94A60861E080E0F6
:1021B0000E9403046FE273E088E196E00E94AD0A9A
:1021C00064EF71E080E090E00E94AE0160E088E1A1
:1021D00096E00E948D0864EF71E080E090E00E943C
:1021E000AE0188E196E00E944B0464EF71E080E06C
:1021F00090E00E94AE0160E088E196E00E948D08C8
:1022000064EF71E080E090E00E94AE0188E196E02A
:102210000E944B040E94AF0A8BE393E00E94910A54
:1022200062E370E080E090E00E94AE018FE3809373
:102230000A070E94290587E097E00E945E0907E2ED
:1022400011E0E7E1EE2EE1E0FE2ED0E0C0E0CC248C
:10225000C394D12C20910907C6010C2E01C0880F10
:102260000A94EAF7922F982B909309079091070709
:10227000809589238093070787E097E00E94FC07F9
:10228000D8012D918D01F701819191917F01A601D6
:1022900002C0440F551F8A95E2F7CA0190910707C3
:1022A000222309F41BC3892B8093070787E097E05B
:1022B0000E94FC0764E670E080E090E00E94AE01BE
:1022C0002196C330D10531F664E670E080E090E0FD
:1022D0000E94AE01809107078F778093070787E000
:1022E00097E00E94FC0787E493E00E94910A86E64B
:1022F00093E00E94910A62E370E080E090E00E9427
:10230000AE010E947609882321F082E793E00E94C3
:10231000910A62E370E080E090E00E94AE0180EDFF
:102320009AE09093C2068093C1066AE070E080E074
:1023300090E00E94AE0189E38093CC060E942905BB
:1023400089EC96E00E945E09D0E0C0E001E010E078
:102350009091CB0678010C2E01C0EE0C0A94EAF79E
:102360002E2D209592239093CB068091C90682232F
:102370008093C90689EC96E00E94FC078091C9060B
:102380008E298093C90689EC96E00E94FC0721966D
:10239000C830D105E9F664E670E080E090E00E9484
:1023A000AE018BE891E09093B5068093B4066FEF91
:1023B0007FEF84E596E00E9451066091C406613289
:1023C00008F060E28091C3060E94AE0610920A05F2
:1023D000809309058091C7069091C806DC01ED91B4
:1023E000FC910284F385E02D09959093C6068093B5
:1023F000C5068091C4068230B8F08091C7069091DE
:10240000C806DC01ED91FC910284F385E02D09956D
:1024100020E0382F8091C5069091C606822B932B21
:102420009093C6068093C50688E893E19093BF0613
:102430008093BE0684E190E09093BD068093BC0635
:102440008EE793E00E94910A62E370E080E090E002
:102450000E94AE018CEE90E00E94130A80EE90E0A4
:102460000E94130A78E0C72ED12CE12CF12CC0E099
:1024700011E0DC2D10935705C09279051092580594
:1024800010927A0581E00E946105811135C080EDCE
:1024900090E00E9437034AE0C701B6010E941F0A7C
:1024A0008BEC90E00E94370340E1C701B6010E9427
:1024B0001F0A89EC90E00E94370381EC90E0D7324C
:1024C00081F08FEA90E0D83361F08BE990E0D93366
:1024D00041F08FE890E0DC3321F0DF3321F485E830
:1024E00090E00E9437030E940D0ACF5F61E070E028
:1024F00080E090E00E94AE01BFEFCB1ADB0AEB0A4E
:10250000FB0AE8E7CE16D104E104F10409F0B1CFEB
:102510008EE790E00E9437036C2F70E090E080E03F
:102520004AE00E941F0A82E790E00E94130A0E947C
:102530000D0A64EF71E080E090E00E94AE0162E37A
:1025400070E080E090E00E94AE010E94E40889E81B
:1025500093E00E94910A61E08DE00E944D0161E0EC
:102560008DE00E941F0164EF70E080E090E00E9427
:10257000AE0160E08DE00E941F0164EF70E080E03A
:1025800090E00E94AE0161E08DE00E941F0164EFC7
:1025900070E080E090E00E94AE0160E08DE00E947B
:1025A0001F010E940D0A84E993E00E94910A0E9493
:1025B0000D0A412C512C3201439463E0262E312C1C
:1025C00011E006E00E94E101C090F804D090F90407
:1025D000E090FA04F090FB046C197D098E099F09C4
:1025E000633371058105910508F4DAC065E070E098
:1025F00080E090E00E94AE0134E3E32E31E0F32E60
:10260000CFE2D1E044E0842E912CA12CB12C89E9B9
:1026100091E00E94910A62EC73E08BE795E00E94E2
:10262000AD0AC501B4010E94650A69EC73E08BE74D
:1026300095E00E94AD0AD7011896CD90DC9088EE07
:1026400096E00E945E096091E906DD2470E00C2CA2
:1026500002C0759567950A94E2F7617070E090E0AA
:1026600080E04AE00E941F0A0E940D0A89E991E079
:102670000E94910A88EE96E00E945E098091E90628
:1026800090E00C2C02C0959587950A94E2F7817032
:102690009C81981709F425C167ED73E08BE795E0FD
:1026A0000E94AD0AC501B4010E94650A69EC73E09D
:1026B0008BE795E00E94AD0A88EE96E00E945E09E5
:1026C0006091E90670E002C075956795CA94E2F7DB
:1026D000617070E090E080E04AE00E941F0A0E9472
:1026E0000D0A8FEF9FEF2091F6043091F704820FCF
:1026F000931F9093F7048093F604843091050CF4B3
:1027000009C180910201882351F165E070E080E009
:1027100090E00E94AE01809107078D7F80930707AC
:1027200087E097E00E94FC0765E070E080E090E0C1
:102730000E94AE01809107078B7F8093070787E097
:1027400097E00E94FC0765E070E080E090E00E9466
:10275000AE018AEF93E00E94910A109202018091EB
:10276000F6049091F704049724F03092F704209235
:10277000F6048091F6049091F7048D3F9F4F34F456
:102780004DEF5FEF5093F7044093F6040E94E10190
:102790006093F8047093F9048093FA049093FB0417
:1027A00080910101811124C00E94E101C09026079F
:1027B000D0902707E0902807F09029076C197D0931
:1027C0008E099F0969397A438105910588F0109334
:1027D0000101809107078E7F8093070787E097E0CC
:1027E0000E94FC076AE070E080E090E00E94AE0189
:1027F0000E94440B1093C0060E94E101C090B006F5
:10280000D090B106E090B206F090B306AB01BC01E7
:102810004C195D096E097F098091BC069091BD0637
:10282000B0E0A0E0912C84179507A607B70708F43D
:102830008FC01092C006E1E3F6E001900020E9F7B6
:10284000E653F64009F03DC0809101018823C9F1AB
:1028500088E194E00E94910A109300010E94440BC9
:1028600064EF71E080E090E00E94AE018091460646
:1028700090914706FC01319120913106A2E3B6E028
:102880004496311137C121113DC11093F3041092C8
:10289000F40410930001109201010E94E101609381
:1028A000260770932707809328079093290784E4CD
:1028B00094E00E94910A0E94A00A84E694E00E949B
:1028C000910A80E090E0892B09F47CCE0E94B4024A
:1028D000882309F475CE0E94000072CE809589236A
:1028E000E3CC65E070E080E090E00E94AE01B1E0F2
:1028F0008B1A9108A108B108E2E0EE1AF1082197BD
:10290000FFEF8F169F06AF06BF0609F080CE81E06D
:1029100090E0E9CE8D3F9F4F0CF021CF80910201D6
:1029200081111DCF0E94E4081ACF888199818E21E0
:102930009F214CC08091B8069091B906C80ED91E4F
:1029400041E0D6016C9184E596E00E949306939451
:102950008091BB069816F0F5C92CD12CE091B806F1
:10296000F091B906EC0DFD1D40E0608184E596E034
:102970000E949306D301C201092C04C0880F991F3D
:10298000AA1FBB1F0A94D2F75C017C01E094F0946B
:10299000812C8091BA06881668F6C82DD0E0E091A7
:1029A000B606F091B706EC0FFD1F608184E596E056
:1029B0000E940C092496CC0FDD1FCC5AD94F892BCD
:1029C00009F0B3CF888199818A299B2999838883CB
:1029D0008394DFCFC4E5D6E07E01F701878D90A117
:1029E000892B31F4148E2FEF3FEF368F258F11A2F4
:1029F00036E0E30EF11C40E956E04E155F0569F73D
:102A0000D12C8091BA06D81608F052C0C12CAD2C3A
:102A1000B12CAA0CBB1CC501845A994F5C012091B2
:102A2000BB06C21608F042C0D5016D917C910C2CFA
:102A300002C0769567950A94E2F7D29E9001112420
:102A40002C0D311DE4E5F6E080E0458D568D241710
:102A5000350709F460C08F5F36968A30B1F760FFA2
:102A600023C0E4E5F6E090E080E0448D411117C01A
:102A7000E091B406F091B506E20FF31F4081089F84
:102A8000F001099FF00D1124EC5AF94F448F368F55
:102A9000258F10A2178E61E00E94ED0105C00196FE
:102AA00036968A30910509F7C394B9CFD394A9CF4C
:102AB000D12C89A18111D82E2696EC16FD06C9F7D6
:102AC0000E94E1016093B0067093B1068093B20654
:102AD0009093B306DD2009F4ACCE8091750688236F
:102AE00009F4A7CE8091730690917406019709F0BE
:102AF000A0CEA1CE321306C031912D918E179F0723
:102B000009F0BFCE1093F5041092F4041093000165
:102B100085E594E0CECE6170BFCF8AE297E00E9457
:102B20004A0C80E397E00E944A0C86E397E00E94FB
:102B30004A0C8CE397E00E944A0C82E497E00C94E4
:102B40004A0C2F923F924F925F926F927F928F9298
:102B50009F92AF92BF92CF92DF92EF92FF920F932C
:102B60001F93CF93DF93CDB7DEB7CA1BDB0B0FB636
:102B7000F894DEBF0FBECDBF09942A8839884888F3
:102B80005F846E847D848C849B84AA84B984C88489
:102B9000DF80EE80FD800C811B81AA81B981CE0F80
:102BA000D11D0FB6F894DEBF0FBECDBFED01089565
:102BB000A1E21A2EAA1BBB1BFD010DC0AA1FBB1F41
:102BC000EE1FFF1FA217B307E407F50720F0A21BB3
:102BD000B30BE40BF50B661F771F881F991F1A9420
:102BE00069F760957095809590959B01AC01BD014A
:102BF000CF010895EE0FFF1F0590F491E02D099489
:102C00000F931F93CF93DF938230910510F482E0EE
:102C100090E0E0914A07F0914B0730E020E0B0E00F
:102C2000A0E0309799F42115310509F44AC0281B1A
:102C3000390B24303105D8F58A819B8161157105E6
:102C400089F1FB0193838283FE0111C04081518190
:102C50000281138148175907E0F04817590799F482
:102C6000109761F012960C93129713961C9332965C
:102C7000CF01DF91CF911F910F91089500934A07E3
:102C800010934B07F4CF2115310551F0421753072C
:102C900038F0A901DB019A01BD01DF01F801C1CFC4
:102CA000EF01F9CF90934B0780934A07CDCFFE01F8
:102CB000E20FF31F819391932250310939832883C6
:102CC000D7CF2091480730914907232B41F4209119
:102CD0000501309106013093490720934807209160
:102CE0000301309104012115310541F42DB73EB7A0
:102CF0004091070150910801241B350BE0914807D2
:102D0000F0914907E217F307A0F42E1B3F0B281799
:102D1000390778F0AC014E5F5F4F2417350748F054
:102D20004E0F5F1F5093490740934807819391933B
:102D30009FCFF0E0E0E09CCFCF93DF930097E9F0E6
:102D4000FC01329713821282A0914A07B0914B077F
:102D5000ED0130E020E01097A1F420813181820F55
:102D6000931F20914807309149072817390709F028
:102D700061C0F0934907E0934807DF91CF91089530
:102D8000EA01CE17DF07E8F54A815B819E01411514
:102D90005105B1F7E901FB83EA8349915991C40FC9
:102DA000D51FEC17FD0761F4808191810296840F95
:102DB000951FE90199838883828193819B838A830C
:102DC000F0E0E0E012968D919C9113970097B9F591
:102DD0002D913C911197CD010296820F931F209166
:102DE0004807309149072817390739F6309751F5C8
:102DF00010924B0710924A07B0934907A0934807D7
:102E0000BCCFD383C28340815181840F951FC817E3
:102E1000D90761F44E5F5F4F88819981480F591F30
:102E2000518340838A819B8193838283211531055D
:102E300009F0B0CFF0934B07E0934A079ECFFD0116
:102E4000DC01C0CF13821282D7CFB0E0A0E0EBE26A
:102E5000F7E10C94A3158C01009751F4CB010E946B
:102E600000168C01C801CDB7DEB7E0E10C94BF15A8
:102E7000FC01E60FF71F9C0122503109E217F3070E
:102E800008F49DC0D901CD91DC911197C617D707E1
:102E900098F0C530D10530F3CE0104978617970717
:102EA00008F3C61BD70B2297C193D1936D937C93E4
:102EB000CF010E949C16D6CF5B01AC1ABD0A4C0113
:102EC0008C0E9D1EA0914A07B0914B07512C412CAE
:102ED000F12CE12C109731F580914807909149072A
:102EE0008815990509F05CC04616570608F058C0C9
:102EF0008091030190910401009741F48DB79EB732
:102F00004091070150910801841B950BE817F907C0
:102F100008F055C0F0934907E0934807F901718321
:102F20006083A0CF8D919C91119712966C9012970F
:102F300013967C901397A815B90559F56C0142E0DA
:102F4000C40ED11CCA14DB0420F1AC014A195B0980
:102F5000DA011296159780F0628273825183408362
:102F6000D9016D937C93E114F10471F0D7011396AC
:102F7000FC93EE93129776CF22968C0F9D1FF9014A
:102F800091838083F301EFCFF0934B07E0934A07DF
:102F900069CF4816590608F42C017D01D3019ACF58
:102FA000CB010E9400167C01009749F0AE01B801E8
:102FB0000E94E717C8010E949C16870153CF10E0BA
:102FC00000E050CF81E090E0F8940C94F717FB01FB
:102FD000DC0102C001900D9241505040D8F7089595
:102FE000FB01DC0101900D920020E1F7089510E053
:102FF000C6EAD0E004C0FE010E94FA152196C73A45
:08300000D107C9F7F894FFCFD6
:1030080001010100004C07800000401454004010EA
:10301800506B006C006D000000010002000300040A
:10302800000500060007000001010101010101007F
:103038000000000100000100020003000400050078
:10304800060000000000EA024A0277025203A802C2
:1030580086029A0200000000CD07A007E1087D075C
:10306800A2038D077E0700000000F0034A02E10872
:10307800E304A608DC038D086E080000000049027E
:1030880093060C0902000401060503313233343576
:10309800363738392A30230D0A0050617373776F39
:1030A800726420726573657400456E7465722020C1
:1030B800436F6465002A202D20436C6561720045CA
:1030C80076656E742048617070656E656400546141
:1030D8007374653A2000202D3E20436F64653A20C2
:1030E8000048617368204E6F7420557365640063EF
:1030F8006C656172656400434C4541524544004C1F
:103108004344207265667265736800557064617423
:10311800654C434400414343455353004752414E95
:103128005445440046757365626F78206F70656E0C
:103138000044454E4945440043455F53545F467536
:103148007365626F780031302E30352E323032316F
:103158000076657273696F6E20312E3053540042C9
:1031680072465553450046555300323531370021D4
:103178006865616465725F626567696E003D3D3DC3
:103188003D3D3D3D3D3D3D3D3D3D3D4675736542C3
:103198006F782032302E30382E323031393D3D3D77
:1031A8003D3D3D3D3D3D3D3D3D3D003D3D3D3D3D84
:1031B8003D3D3D3D3D3D3D3D3D3D3D3D3D3D534519
:1031C8005455503D3D3D3D3D3D3D3D3D3D3D3D3DE5
:1031D8003D3D3D3D3D3D3D3D003D3D5356312E334A
:1031E8003D3D003D3D6E6F2068797374657273696B
:1031F800732070726F74656374696F6E3D3D003D36
:103208003D49474E4F52455F4B45595041445354F1
:103218004154453D3D00216865616465725F656E96
:1032280064002173657475705F626567696E005329
:1032380074617274696E672E2E2E004C43443A20D6
:10324800202020206F6B0031325620506572697043
:10325800686572616C20506F776572205375707065
:103268006C79204F4E0052656C61793A2020206FAE
:103278006B00496E707574733A20206F6B004B6554
:10328800797061643A206F6B002173657475705FA3
:10329800656E64003D3D3D3D3D3D3D3D3D3D3D3D13
:1032A8003D3D3D3D3D3D3D53544152543D3D3D3DE9
:1032B8003D3D3D3D3D3D3D3D3D3D3D3D3D3D3D3D36
:1032C8003D00667573654E6F007769746820726596
:1032D80073756C743A2000696E636F7272656374FB
:1032E800206675736520696E7374616C6C65642003
:1032F800617420736C6F743A200045766572797436
:1033080068696E6720636F72726563742C206F70D2
:10331800656E20646F6F720034205A656963686552
:103328006E2065696E6765626562656E202D207521
:103338006562657270727565666520506173737732
:103348006F727400436F7272656374207061737377
:10335800776F72640057726F6E672070617373774E
:103368006F726400436865636B2070617373776F75
:08337800726420446F6E6500D1
:00000001FF
