:100000000C94A7000C94CF000C94CF000C94290DF5
:100010000C94040D0C94DF0C0C94CF000C94CF00C6
:100020000C94CF000C94CF000C94CF000C94CF0014
:100030000C94CF000C94CF000C94CF000C94CF0004
:100040000C943D0C0C94CF000C94AD0C0C94870CCC
:100050000C94CF000C94CF000C94CF000C94CF00E4
:100060000C944E0D0C94CF0020646576696365286E
:1000700073292E00466F756E642000202D3E20529D
:10008000656C617900202D3E20446973706C617944
:1000900000202D3E20496E7075742D4932432D622B
:1000A0006F61726400202D3E204C43442D49324341
:1000B0002D426F61726400202D3E204C4344002984
:1000C000002028307800466F756E64206164647289
:1000D0006573733A20005363616E6E696E672E2EEE
:1000E0002E00493243207363616E6E65723A0000E0
:1000F0000000002300260029000000000024002743
:10010000002A0000000000250028002B0004040441
:1001100004040404040202020202020303030303B0
:10012000030102040810204080010204081020018D
:10013000020408102000000008000201000003046F
:10014000070000000000000000006D0E961311244F
:100150001FBECFEFD8E0DEBFCDBF26E0A2E0B4E007
:1001600001C01D92A239B207E1F714E0A0E0B1E0AE
:10017000EAE1FCE202C005900D92A230B107D9F786
:1001800010E0C6EAD0E004C02197FE010E940314EB
:10019000C53AD107C9F70E94C00F0C9400160C9401
:1001A000000096E0899FD0011124A852BA4F909682
:1001B0007C936E935F9791E091969C939197E091D9
:1001C0004506F091460690914406992339F0309700
:1001D00051F0811108C08091F4050994309719F00D
:1001E0005C968C91FACF0895833081F028F48130A9
:1001F00099F08230A9F008958730A9F08830C9F0CD
:100200008430B1F4809180008F7D03C080918000A4
:100210008F7780938000089584B58F7784BD08958B
:1002200084B58F7DFBCF8091B0008F778093B00035
:1002300008958091B0008F7DF9CF1F93CF93DF9306
:10024000282F30E0F901EB5CFE4F8491F901EF5D5E
:10025000FE4FD491F901E35FFE4FC491CC23A9F086
:10026000162F81110E94F400EC2FF0E0EE0FFF1F1B
:10027000ED5FFE4FA591B4918FB7F894EC911111F9
:1002800008C0D095DE23DC938FBFDF91CF911F9103
:100290000895DE2BF8CFCF93DF9390E0FC01EF5D64
:1002A000FE4F2491835F9E4FFC0184918823C9F007
:1002B00090E0880F991FFC01E750FF4FA591B49182
:1002C000FC01ED5FFE4FC591D49161110DC09FB748
:1002D000F8948C91209582238C93888128232883FD
:1002E0009FBFDF91CF910895623051F49FB7F8948A
:1002F0003C91822F809583238C93E8812E2BEFCF26
:100300008FB7F894EC912E2B2C938FBFEACF3FB789
:10031000F89480918B0490918C04A0918D04B091FD
:100320008E0426B5A89B05C02F3F19F00196A11D8C
:10033000B11D3FBFBA2FA92F982F8827BC01CD012F
:10034000620F711D811D911D42E0660F771F881F8E
:10035000991F4A95D1F708958F929F92AF92BF92BD
:10036000CF92DF92EF92FF926B017C010E94870196
:100370004B015C01C114D104E104F104B9F00E9405
:100380008701681979098A099B09683E73408105CC
:10039000910580F321E0C21AD108E108F10888EE46
:1003A000880E83E0981EA11CB11CE4CFFF90EF9053
:1003B000DF90CF90BF90AF909F908F9008952FB710
:1003C000F8946091870470918804809189049091D9
:1003D0008A042FBF08950F931F93CF93DF93C82FE5
:1003E000D62F86E0C89FF0011124E852FA4F11A2DF
:1003F000878D90A181309105F1F058F08230910500
:10040000F1F1039709F440C0DF91CF911F910F9153
:1004100008956623C9F361E070E08C2F0E94D1003B
:100420000E94DF016093300670933106809332069C
:1004300090933306E9CF0E94DF01009130061091BE
:1004400031062091320630913306AB01BC01401BCE
:10045000510B620B730B8091420690914306B0E002
:10046000A0E084179507A607B70748F462E070E09C
:100470008C2FDF91CF911F910F910C94D10063E0ED
:1004800070E0D111C1CFF4CF70E060E0F1CF0895FA
:10049000089508958091810490918204891B990B9D
:1004A0000895AF92BF92CF92DF92EF92FF920F9397
:1004B0001F93CF93DF936C017B018B01040F151FFA
:1004C000EB015E01AE18BF08C017D10759F0699162
:1004D000D601ED91FC910190F081E02DC6010995C6
:1004E000892B79F7C501DF91CF911F910F91FF9073
:1004F000EF90DF90CF90BF90AF900895FC01538DA7
:10050000448D252F30E0842F90E0821B930B5417ED
:1005100010F0CF96089501970895FC01918D828D7A
:10052000981761F0A28DAE0FBF2FB11D5D968C9113
:10053000928D9F5F9F73928F90E008958FEF9FEF52
:100540000895FC01918D828D981731F0828DE80F0E
:10055000F11D858D90E008958FEF9FEF0895FC01C8
:10056000918D228D892F90E0805C9F4F821B910995
:100570008F73992708958FEF94E00E94AF0221E0D6
:10058000892B09F420E0822F089580E090E0892BE8
:1005900029F00E94BB0281110C9400000895FC0117
:1005A000A48DA80FB92FB11DA35ABF4F2C91848DD4
:1005B00090E001968F739927848FA689B7892C9331
:1005C000A089B1898C91837080648C93938D848D84
:1005D000981306C00288F389E02D80818F7D808387
:1005E0000895EF92FF920F931F93CF93DF93EC0147
:1005F00081E0888F9B8D8C8D98131AC0E889F989CA
:10060000808185FF15C09FB7F894EE89FF896083CC
:10061000E889F98980818370806480839FBF81E04D
:1006200090E0DF91CF911F910F91FF90EF9008958F
:10063000F62E0B8D10E00F5F1F4F0F731127E02E6A
:100640008C8D8E110CC00FB607FCFACFE889F989A2
:10065000808185FFF5CFCE010E94CF02F1CFEB8DD7
:10066000EC0FFD2FF11DE35AFF4FF0829FB7F89476
:100670000B8FEA89FB8980818062CFCF0F931F9314
:10068000CF93DF938C01D0E0C0E0F801EC0FFD1FA9
:100690006491662341F08FEF94E00E94F102892B70
:1006A00011F02196F2CFCE01DF91CF911F910F91E2
:1006B0000895CF93DF93EC01888D8823B9F0AA8940
:1006C000BB89E889F9898C9185FD03C0808186FD0D
:1006D0000DC00FB607FCF7CF8C9185FFF2CF80815C
:1006E00085FFEDCFCE010E94CF02E9CFDF91CF9100
:1006F0000895CF93DF9370E0FB01EB5CFE4F849194
:10070000FB01EF5DFE4FD491635F7E4FFB01C4910F
:10071000CC23A1F081110E94F400EC2FF0E0EE0F49
:10072000FF1FE151FF4FA591B491EC91ED2381E0C2
:1007300090E009F480E0DF91CF91089580E090E0AF
:10074000FACF862F642F0C941D01862F642F0C94F2
:100750004B0190E0FC01EE0FFF1FED50FF4FA59104
:10076000B4912C91FC01E658FB4F30812083880F17
:10077000991FFC01E05FFE4F0190F081E02D808128
:10078000089521E001C0220F6A95EAF7DC011C966A
:100790002C931C971A965C934E931997ED91FC91AC
:1007A0000484F585E02D60E00994DC01ED91FC9175
:1007B0000684F785E02D41E0099581E090E00895F9
:1007C000DC01ED91FC910684F785E02D40E0099471
:1007D0000F931F93CF93DF93CDB7DEB728970FB654
:1007E000F894DEBF0FBECDBF009108011091090142
:1007F00020910A0130910B010D831E832F833887CE
:1008000000910C0110910D0120910E0130910F010A
:1008100009831A832B833C839091A305691710F0F9
:100820006FEF690F262F30E04091A4052C0F3D1F7C
:10083000F901403199F4943089F46181680F60685E
:100840008CE995E028960FB6F894DEBF0FBECDBFB9
:10085000DF91CF911F910F910C94E0036581EECF52
:10086000DC01ED91FC910484F585E02D6FEF099496
:1008700061E00E94E0038BE39FE10197F1F70895A7
:100880000F931F93CF93DF93EC01423018F08C81CC
:1008900088608C834F836887222329F0413019F4C4
:1008A0008C8184608C8364E670E080E090E00E943C
:1008B000AC016C8164FD52C0E881F9810684F78542
:1008C000E02D42E063E0CE0109958BE496E40197C8
:1008D000F1F7E881F9810684F785E02D42E063E0D5
:1008E000CE01099503E512E0C8010197F1F7E8810F
:1008F000F9810684F785E02D42E063E0CE01099599
:10090000C8010197F1F7E881F9810684F785E02DA8
:1009100042E062E0CE010995C8010197F1F76C81D0
:100920006062CE010E94E0038BEE90E00197F1F748
:1009300084E08D836CE0CE010E94E003CE010E9432
:10094000380482E08E8366E0CE010E94E003CE018F
:10095000DF91CF911F910F910C9430046062CE0112
:100960000E94E0038BE496E40197F1F76C816062EA
:10097000CE010E94E00303E512E0C8010197F1F700
:100980006C816062CE010E94E003C6CF0895089595
:10099000089520912704260F3327331F2132310574
:1009A000ECF42091D504FC0190E080E0243069F063
:1009B00082E00895A09127042191AC01495F5B4F2B
:1009C000A40FB52FB11D2C930196861798F3809133
:1009D0002704680F6093270480E0089581E008955C
:1009E0001092D50481E08093D4041092AF0461E0AA
:1009F00082E10E941D0161E083E10E941D01E9EB9B
:100A0000F0E080818E7F808380818D7F808388E489
:100A10008093B80085E48093BC000895CF93DF9362
:100A200091E0909306048823B9F0C091B800D0916A
:100A3000BA008091BC008A7B8093BC0060E082E1B8
:100A40000E941D0160E083E10E941D010E94F004EC
:100A5000D093BA00C093B800DF91CF9108958F92E0
:100A60009F92AF92BF92CF92DF92EF92FF920F933D
:100A70001F93CF93DF93D091FE04D13208F0D7C0FB
:100A8000182FC091FD040E9487016B017C018091A9
:100A9000D50481116BC082E08093D5041093D404F7
:100AA0008FEF8093D3041092D204D093D104ADED94
:100AB000B4E0E1EBF4E080E0D81391C01092B00410
:100AC0008091B004CC0FC82BC093B0048091AF04C8
:100AD000813009F088C01092AF040E9487016B0139
:100AE0007C018091B0048093BB008091D7049091E9
:100AF000D804A091D904B091DA04892B8A2B8B2BCE
:100B0000A1F00E9487010091D7041091D804209190
:100B1000D9043091DA046C197D098E099F090617F2
:100B200017072807390708F442C08091BC0083FDED
:100B3000D8CF85EC8093BC000E9487016B017C01BB
:100B40008091D504823009F450C08091D3048F3F46
:100B500009F46FC08091D304803209F46CC0809195
:100B6000D304803309F469C084E026C08091D7049F
:100B70009091D804A091D904B091DA04892B8A2BE2
:100B80008B2B09F484CF0E9487018090D70490902A
:100B9000D804A090D904B090DA046C197D098E09AC
:100BA0009F0986169706A806B90608F070CF8091AF
:100BB000D6040E940E0585E01092DC041092FE041B
:100BC0001092DB04DF91CF911F910F91FF90EF9076
:100BD000DF90CF90BF90AF909F908F9008959D91A0
:100BE00091938F5F69CF85EEA5CF8091D7049091C7
:100BF000D804A091D904B091DA04892B8A2B8B2BCD
:100C000009F49ECF0E9487010091D7041091D80467
:100C10002091D9043091DA046C197D098E099F095D
:100C2000061717072807390708F08ACFC0CF81E0D9
:100C3000C3CF80E0C1CF82E0BFCF83E0BDCFEF92D2
:100C4000FF920F931F93CF93DF93EC018B017C01F5
:100C500083E7E80EF11CD7018D919C91FE01E159CB
:100C6000FF4F208131E03093DB042093FD0410928C
:100C7000DC041092FE04DC01ED91FC910190F08106
:100C8000E02D0995FE01E059FF4F8081823058F038
:100C9000F70180819181DC01ED91FC910190F0815F
:100CA000E02D612F099581E00E942F05CF58DF4F7D
:100CB00008831983DF91CF911F910F91FF90EF90DF
:100CC000089521E030E002C0220F331F6A95E2F759
:100CD000FC01EF58FF4F60817181442341F0262BC6
:100CE000372B31832083608171810C941F062095FE
:100CF000309526233723F5CFCF92DF92EF92FF92E4
:100D00000F931F93CF93DF93D82FC62F613208F034
:100D100098C00E9487016B017C018091D5048111EC
:100D20006BC081E08093D5048093D4049FEF9093AF
:100D3000D3041092D2049C0F9093D1048093B004FA
:100D40008091B004DD0FD82BD093B0048091AF0414
:100D5000813009F078C01092AF040E9487016B01C6
:100D60007C018091B0048093BB008091D704909166
:100D7000D804A091D904B091DA04892B8A2B8B2B4B
:100D8000A1F00E9487010091D7041091D80420910E
:100D9000D9043091DA046C197D098E099F09061770
:100DA00017072807390708F448C08091BC0083FD65
:100DB000D8CF85EC8093BC000E9487016B017C0139
:100DC0008091D504813009F440C08091D2048C1701
:100DD00010F4C091D204E1EBF4E0AFE8B4E080E0BD
:100DE0008C1355C08C2FDF91CF911F910F91FF90E5
:100DF000EF90DF90CF9008958091D7049091D80420
:100E0000A091D904B091DA04892B8A2B8B2B09F499
:100E100084CF0E9487010091D7041091D8042091BB
:100E2000D9043091DA046C197D098E099F090617DF
:100E300017072807390708F070CF8091D6040E9461
:100E40000E05C0E0CFCF85EEB5CF8091D70490914D
:100E5000D804A091D904B091DA04892B8A2B8B2B6A
:100E600009F4AECF0E9487010091D7041091D804F5
:100E70002091D9043091DA046C197D098E099F09FB
:100E8000061717072807390708F09ACFD6CF919190
:100E90009D938F5FA5CF0895E09182048091810496
:100EA000E81730F4F0E0E157FB4F808190E00895BF
:100EB0008FEF9FEF089590918204809181042FEF2E
:100EC0003FEF981748F4E92FF0E0E157FB4F2081FE
:100ED00030E09F5F90938204C9010895CF92DF9222
:100EE000EF92FF920F931F93CF93DF937C01CB017F
:100EF0008A012091DB04222389F0EB016B01C40EEF
:100F0000D51ECC15DD0569F06991D701ED91FC91F5
:100F10000190F081E02DC7010995F3CF642F0E9465
:100F2000C904C801DF91CF911F910F91FF90EF90FD
:100F3000DF90CF900895CF93DF931F92CDB7DEB7A8
:100F400069832091DB042223F9F02091FE042032F2
:100F500058F021E030E0FC013383228390E080E010
:100F60000F90DF91CF9108958091DC04E82FF0E09D
:100F7000E352FB4F998190838F5F8093DC048093D1
:100F8000FE0481E090E0ECCF61E0CE0101960E948A
:100F9000C904F7CFEDE4F6E091816281808123817D
:100FA00031E03093DB042093FD041092DC041092B6
:100FB000FE0460956923682B8CEC95E00E949B07EA
:100FC00081E00C942F05FC0123812223F9F0262FC8
:100FD0006181609562236083828191E09093DB045C
:100FE0008093FD041092DC041092FE048CEC95E0DA
:100FF0000E949B0781E00E942F05282F30E081E0AE
:1010000090E0232B11F090E080E0089530E020E0A4
:10101000F6CFEF92FF920F931F93CF938C01FC01B9
:1010200084E0C0E0262F30E060FF02C09589C92B24
:10103000B90175956795815031968111F3CF413093
:1010400011F4F8014489F8016585C62BC42B780199
:10105000FEE0EF0EF11CF80162896C2BC7010E94C3
:10106000E307F801628960956C23C701CF911F9156
:101070000F91FF90EF900C94E3070F931F93CF9382
:10108000DF93062F0F70423041F440E0602FDF9174
:10109000CF911F910F910C940908142FEC0170E06F
:1010A00084E0759567958A95E1F7CE010E9409085D
:1010B000412F602FCE01EBCFFC0184858823A1F066
:1010C000218532852115310521F4611107C015866E
:1010D00006C021303105D9F76111F9CF85876585C3
:1010E000CF010E960C94E3070895EF92FF920F93B1
:1010F0001F93CF93DF93EC01062FF42EE22E8B8506
:10110000888B10928204109281041092DC04109259
:10111000FE040E94F00488E492E09093800480939F
:101120007F0489E492E090937E0480937D04888913
:1011300011E01093DB048093FD0481E00E942F05F1
:1011400081111CC0198B8CEC95E00E945B078E8787
:101150008989882339F01F861C8260E0CE010E96B3
:101160000E94E3072E2D4F2D602FCE01DF91CF91EE
:101170001F910F91FF90EF900C944004198AE8CFD3
:1011800090E080E00895CF92DF92EF92FF920F936C
:101190001F93CF93DF93EC0181E090E07C0102C0CC
:1011A000EE0CFF1C6A95E2F76E0180E7C80ED11CB9
:1011B000D6016C91613208F060E2FE01E159FF4F07
:1011C00080810E947C061092820480938104CD5815
:1011D000DF4F88819981DC01ED91FC910284F385D8
:1011E000E02D09958C01F6018081823060F08881C4
:1011F0009981DC01ED91FC910284F385E02D099544
:1012000020E0022B182B0E211F2181E090E00E150B
:101210001F0511F090E080E0DF91CF911F910F91B9
:10122000FF90EF90DF90CF900895FB010190002098
:10123000E9F73197AF01461B570BDC01ED91FC91AB
:101240000280F381E02D099463E871E08FEF94E070
:101250000C941509CF93DF930E943E03EC010E948A
:1012600024098C0F9D1FDF91CF9108958F929F923B
:10127000AF92BF920F931F93CF93DF93CDB7DEB79B
:10128000A1970FB6F894DEBF0FBECDBF19A24230B2
:1012900008F44AE08E010F5D1F4F842E912CB12C73
:1012A000A12CA50194010E94E113E62FB901CA0106
:1012B000EA3004F5E05DD801EE938D01232B242B59
:1012C000252B79F790E080E0109729F0BD018FEF92
:1012D00094E00E941509A1960FB6F894DEBF0FBEE8
:1012E000CDBFDF91CF911F910F91BF90AF909F9095
:1012F0008F900895E95CDFCFCF92DF92EF92FF925B
:101300001F93CF93DF9382EE90E00E942A0986ED2F
:1013100090E00E942A0988E0C82ED12CE12CF12C03
:10132000C0E011E0DC2D1093DB04C092FD041092AC
:10133000DC041092FE0481E00E942F05811135C06B
:1013400086EC90E00E943E034AE0C701B6010E948D
:10135000360981EC90E00E943E0340E1C701B601EE
:101360000E9436098FEB90E00E943E0387EB90E0ED
:10137000D73281F085EA90E0D83361F081E990E0DE
:10138000D93341F085E890E0DC3321F0DF3321F4FC
:101390008BE790E00E943E030E942409CF5F61E04A
:1013A00070E080E090E00E94AC018FEFC81AD80A8C
:1013B000E80AF80A88E7C816D104E104F10409F044
:1013C000B1CF84E790E00E943E036C2F70E090E084
:1013D00080E04AE00E94360988E690E00E942A09EF
:1013E0000E94240964EF71E080E090E0DF91CF91EA
:1013F0001F91FF90EF90DF90CF900C94AC01CF93B2
:10140000DF93BC018FEF94E00E941509EC010E946C
:1014100024098C0F9D1FDF91CF91089510928404B1
:1014200081E080930001E5EBF5E0148A108286E804
:1014300091E00C94FF090C9415098CE995E00E9449
:10144000380462E08CE995E00E94E0038BE39FE1C1
:101450000197F1F760E084E00E94E80365E971E03C
:101460008CE995E00E941B0A63E080E00E94E8039B
:1014700061EA71E08CE995E00C941B0ACF93C82FC8
:101480008BEA91E00E94FF098CE995E00E9430040C
:101490008091F7059091F8050197E1F56AEB71E00D
:1014A0008FEF94E00E941B0A6C2F8FEF94E00E9454
:1014B000F10262EC71E08FEF94E00E941B0A65EB91
:1014C00075E08FEF94E00E941B0A6C2F8FEF94E081
:1014D0000E94F1020E94240981E080938404809399
:1014E0000001C332C9F0CA32E1F0809101018823C2
:1014F00089F0E091C905E33169F081E08E0F8093B6
:10150000C905F0E0EB54FA4FC083E82FF0E0EB544C
:10151000FA4F1082CF9108958DEC91E0CF910C9409
:10152000FF098BED91E00E94FF090E940E0A809155
:101530000101882379F38CE995E00E94380461E089
:1015400086E00E94E80363EE71E08CE995E00E947A
:101550001B0A6EEE72E080E090E00E94AC01CF9139
:101560000C941D0AEF92FF920F931F93CF930E944A
:10157000DF010091020410910304209104043091D2
:101580000504601B710B820B930B6137774181055A
:10159000910558F080918404811107C081E0809307
:1015A00000018BEE91E00E94FF09809100018823E9
:1015B00009F4B7C08091010181110E941D0A0E94A7
:1015C000DF016093020470930304809304049093FA
:1015D00005041092000187EF91E00E94FF098091BD
:1015E0008404882391F18CE995E00E943004809175
:1015F00001018823F9F005EB15E0C8E07801F70157
:1016000001900020E9F7CF01865B95409801255BAA
:1016100035402817390770F461E08C2F0E94E803E9
:10162000F80161918F018CE995E00E94D503CF5FAD
:10163000C43129F765E070E080E090E0CF911F9120
:101640000F91FF90EF900C94AC018091830488235C
:10165000C1F18CE995E00E94380461E087E00E94C6
:10166000E80361E072E08CE995E00E941B0A62E009
:1016700086E00E94E80368E072E08CE995E00E9451
:101680001B0A68EE73E080E090E00E94AC0164E623
:1016900070E080E090E00E94AC0180914D06816096
:1016A00080934D060E94CA0780E192E00E94FF09E4
:1016B00064E670E080E090E00E94AC011092830448
:1016C000B9CF80918504882321F18CE995E00E94AF
:1016D000380461E087E00E94E80361E072E08CE991
:1016E00095E00E941B0A62E087E00E94E8036DE13A
:1016F00072E08CE995E00E941B0A68EE73E080E0DE
:1017000090E00E94AC0181E080930001109285047A
:1017100091CF80910101882309F48CCF0E941D0A8A
:1017200089CF0E94DF0100910204109103042091EF
:10173000040430910504601B710B820B930B693814
:1017400073418105910508F475CF0E940E0A8091BE
:10175000010181110E941D0A60E08CE995E00E9460
:101760005C0868CF0E94EB15FC0180819181009795
:1017700011F00C94A5140895EF92FF920F931F930C
:10178000CF93DF93EC017B01198218821B821A82AE
:101790001D821C82FB0101900020E9F731978F0127
:1017A000061B170BB8016F5F7F4F90E080E00E942F
:1017B0002E150097B9F0998388831B830A832C81A7
:1017C0003D81232B11F4FC0110821D830C83B70192
:1017D00088819981DF91CF911F910F91FF90EF90B8
:1017E0000C94F91588819981009711F00E94A51435
:1017F000198218821D821C821B821A82DF91CF916E
:101800001F910F91FF90EF90089585ED8093BC009C
:101810008091D7049091D804A091D904B091DA04B2
:101820000796A11DB11D23E0B695A79597958795BD
:101830002A95D1F72091BC0024FD03C01092D50455
:1018400008954091D7045091D8046091D9047091C3
:10185000DA04452B462B472B69F30097A105B10508
:1018600041F025E32A95F1F700000197A109B1099C
:10187000E1CF8091D6040C940E051F920F920FB603
:101880000F9211242F933F938F939F93AF93BF9306
:101890008091870490918804A0918904B0918A0472
:1018A0003091860423E0230F2D3758F50196A11DB2
:1018B000B11D209386048093870490938804A0939D
:1018C0008904B0938A0480918B0490918C04A09138
:1018D0008D04B0918E040196A11DB11D80938B04DF
:1018E00090938C04A0938D04B0938E04BF91AF911C
:1018F0009F918F913F912F910F900FBE0F901F904E
:10190000189526E8230F0296A11DB11DD2CF1F9274
:101910000F920FB60F9211242F933F934F935F9323
:101920006F937F938F939F93AF93BF93EF93FF93A7
:101930008FEF94E00E94CF02FF91EF91BF91AF91A2
:101940009F918F917F916F915F914F913F912F91D7
:101950000F900FBE0F901F9018951F920F920FB609
:101960000F9211242F938F939F93EF93FF93E09106
:101970000F05F09110058081E0911505F091160595
:1019800082FD1BC09081809118058F5F8F7320911D
:101990001905821741F0E0911805F0E0E150FB4F86
:1019A000958F80931805FF91EF919F918F912F91C3
:1019B0000F900FBE0F901F9018958081F4CF1F924B
:1019C0000F920FB60F9211242F933F934F935F9373
:1019D0006F937F938F939F93AF93BF93EF93FF93F7
:1019E00082E00E94A903FF91EF91BF91AF919F9177
:1019F0008F917F916F915F914F913F912F910F90B8
:101A00000FBE0F901F9018951F920F920FB60F9256
:101A100011242F933F934F935F936F937F938F93F3
:101A20009F93AF93BF93EF93FF9381E00E94A9032D
:101A3000FF91EF91BF91AF919F918F917F916F91A6
:101A40005F914F913F912F910F900FBE0F901F907C
:101A500018951F920F920FB60F9211242F933F9358
:101A60004F935F936F937F938F939F93AF93BF93A6
:101A7000EF93FF9380E00E94A903FF91EF91BF9144
:101A8000AF919F918F917F916F915F914F913F9116
:101A90002F910F900FBE0F901F9018951F920F92CD
:101AA0000FB60F9211242F933F934F935F936F9331
:101AB0007F938F939F93AF93BF93EF93FF93809107
:101AC000B900887F803609F44AC0F0F5883209F4FD
:101AD000A7C018F5803109F49BC0B8F4882309F435
:101AE000F9C0883009F494C0FF91EF91BF91AF9194
:101AF0009F918F917F916F915F914F913F912F9126
:101B00000F900FBE0F901F901895883109F488C070
:101B1000803251F78093D30414C0803409F49DC0FF
:101B200040F48033B9F38833F9F68093D30485EC1D
:101B3000B0C0803509F485C0883509F496C0883472
:101B400099F60E94050CD0CF883909F48CC038F57D
:101B5000883729F050F4883611F0803729F683E071
:101B60008093D5041092490457C0883809F47BC08B
:101B7000803919F0803809F0B7CF8091490480325C
:101B800008F071C0E091490481E08E0F8093490410
:101B90008091BB00F0E0E75DFB4F80833DC0803B60
:101BA00039F0E0F4803A09F479C0883A09F09CCF22
:101BB00084E08093D5041092280410922704E091C9
:101BC0007F04F091800409958091270481110FC052
:101BD00081E0809327041092070409C0803C09F437
:101BE000A6CF883C09F4A3CF883B09F07DCFE091D4
:101BF000280481E08E0F80932804F0E0E95FFB4F1A
:101C000080818093BB00909128048091270429C093
:101C10008091B0048093BB0085EC8093BC0064CFBE
:101C20009091D2048091D104981758F5E091D20494
:101C300081E08E0F8093D204F0E0EF54FB4F80815F
:101C4000E9CFE091D20481E08E0F8093D20480919D
:101C5000BB00F0E0EF54FB4F80839091D204809161
:101C6000D1049817C8F285E8D8CFE091D20481E07A
:101C70008E0F8093D2048091BB00F0E0EF54FB4FB5
:101C800080838091D40481115CCF81E08093AF0484
:101C900084EA8093BC001092D50426CF85EC809313
:101CA000BC001092D50480914904803230F4E09158
:101CB0004904F0E0E75DFB4F10826091490470E059
:101CC000E0917D04F0917E0489E294E00995109200
:101CD00049040ACF1092D30434CF10920205109217
:101CE000010588EE93E0A0E0B0E0809303059093B7
:101CF0000405A0930505B093060522E331E0309377
:101D000000052093FF0425EC30E030930C05209370
:101D10000B0524EC30E030930E0520930D0520ECEC
:101D200030E03093100520930F0521EC30E0309324
:101D300012052093110522EC30E030931405209316
:101D4000130526EC30E0309316052093150510920C
:101D500018051092190510921A0510921B05109281
:101D6000CF051092CE058093D0059093D105A09316
:101D7000D205B093D30584E491E09093CD05809390
:101D8000CC0564E272E088E896E00E94BC0B62E356
:101D900072E082E896E00E94BC0B6DE372E08CE793
:101DA00096E00E94BC0B6BE472E086E796E00E942E
:101DB000BC0B62E572E080E796E00E94BC0B0E94DB
:101DC000DF0160936C0670936D0680936E069093AE
:101DD0006F0610924D0610924E0610924F0610920A
:101DE000500610925106109252061092530610920D
:101DF00054061092550610925606109257061092ED
:101E000058061092590610925A0610925B061092CC
:101E10005D0610925C0610925F0610925E061092AC
:101E2000610610926006109263061092620610928C
:101E3000650610926406109267061092660610926C
:101E400069061092680610926B0610926A0610924C
:101E5000DA051092DE051092DD051092DF05E4EF41
:101E6000F5E01082148213821582369686E0E03304
:101E7000F807B9F783E791E090933B0680933A0621
:101E800080E791E090933D0680933C0694E0909328
:101E90003E0683E080933F0627E731E03093390622
:101EA000209338062AE030E0309341062093400624
:101EB00024EF31E030934306209342061092460609
:101EC000109245061092340610923506109236068E
:101ED00010923706109244062AE631E03093D90575
:101EE0002093D80588E38093470681E080934806D5
:101EF0002CEC35E030934C0620934B0626E532E07F
:101F00003093CB052093CA051092C9051092B505F0
:101F100010929F0510929E0526E531E030939D05B5
:101F200020939C051092AC052FEF2093AB051092E7
:101F3000AA051092AD0527E22093A7051092A805E7
:101F40001092A9051092A6051092A5059093AE05D2
:101F500092E09093AF058093B00580E18093B10546
:101F600080E28093B20580E48093B30580E880939B
:101F7000B40550E040E063E08CE995E00C94C103C7
:101F8000789484B5826084BD84B5816084BD85B554
:101F9000826085BD85B5816085BD80916E00816060
:101FA00080936E0010928100809181008260809306
:101FB0008100809181008160809381008091800008
:101FC0008160809380008091B10084608093B10033
:101FD0008091B00081608093B00080917A0084602D
:101FE00080937A0080917A00826080937A00809159
:101FF0007A00816080937A0080917A008068809373
:102000007A001092C100E0910F05F091100582E076
:102010008083E0910B05F0910C051082E0910D0595
:10202000F0910E0580E1808310921705E091130571
:10203000F091140586E08083E0911105F09112057E
:10204000808180618083E0911105F091120580818B
:1020500088608083E0911105F0911205808180688D
:102060008083E0911105F091120580818F7D80833E
:102070008BE592E00E94FF0962E370E080E090E06F
:102080000E94AC010E94240989E692E00E94FF09A7
:102090000E94240987E992E00E94FF0985EC92E002
:1020A0000E94FF098FEC92E00E94FF098BEE92E004
:1020B0000E94FF094AE060E070E0CB010E9436090F
:1020C0000E94240982E093E00E94FF090E942409F3
:1020D0008EE093E00E94FF090E947C0920E044E02A
:1020E00064E18CE995E00E94750861E080E00E945F
:1020F000E8036BE173E08CE995E00E941B0A64EF52
:1021000071E080E090E00E94AC0160E08CE995E035
:102110000E945C0864EF71E080E090E00E94AC01F6
:102120008CE995E00E94300464EF71E080E090E07B
:102130000E94AC0160E08CE995E00E945C0864EFCD
:1021400071E080E090E00E94AC018CE995E00E9493
:1021500030040E941D0A87E293E00E94FF0962E3B7
:1021600070E080E090E00E94AC018FE38093500625
:10217000109282041092DC041092FE040E94F0047B
:1021800088E492E09093800480937F0489E492E055
:1021900090937E0480937D0480914E068093510637
:1021A00061E0809150060E947C0680938104811139
:1021B00001C0FFCF8CEC95E00E945B0780934E0638
:1021C00006E211E076E1E72E71E0F72ED0E0C0E004
:1021D000CC24C394D12C20914F06C6010C2E01C0F3
:1021E000880F0A94EAF7922F982B90934F069091BC
:1021F0004D068095892380934D060E94CA07D80119
:102200002D918D01F701819191917F01A60102C06D
:10221000440F551F8A95E2F7CA0190914D0622237B
:1022200009F48AC1892B80934D060E94CA0764E68F
:1022300070E080E090E00E94AC012196C330D105AF
:1022400051F664E670E080E090E00E94AC0180917D
:102250004D068F7780934D060E94CA0783E393E073
:102260000E94FF0982E593E00E94FF0962E370E0AB
:1022700080E090E00E94AC018EE39AE090934606E5
:102280008093450687E791E090933906809338065E
:102290006FEF7FEF88ED95E00E941F066091480682
:1022A000613208F060E2809147060E947C0610923D
:1022B00082048093810480914B0690914C06DC014E
:1022C000ED91FC910284F385E02D099590934A06E7
:1022D00080934906809148068230B8F080914B0681
:1022E00090914C06DC01ED91FC910284F385E02D88
:1022F000099520E0382F8091490690914A06822B5B
:10230000932B90934A068093490688E893E1909333
:1023100043068093420684E190E0909341068093C7
:1023200040068EE593E00E94FF0962E370E080E0E2
:1023300090E00E94AC010E947C0962E370E080E0C2
:1023400090E00E94AC0165E070E080E090E00E94C7
:10235000AC0180914D06826080934D060E94CA07B1
:1023600065E070E080E090E00E94AC0180914D0655
:10237000846080934D060E94CA0765E070E080E0AB
:1023800090E00E94AC0189E693E00E94FF0961E0C1
:102390008DE00E944B0161E08DE00E941D0164EF21
:1023A00070E080E090E00E94AC0160E08DE00E946F
:1023B0001D0164EF70E080E090E00E94AC0161E0FC
:1023C0008DE00E941D0164EF70E080E090E00E94CB
:1023D000AC0160E08DE00E941D010E94240984E7A9
:1023E00093E00E94FF090E942409812C912C540142
:1023F00083947724739460E0262E60E0362E46E0C6
:10240000642E80910101811122C00E94DF010091A0
:102410006C0610916D0620916E0630916F06601B60
:10242000710B820B930B69397A438105910578F022
:102430007092010180914D068E7F80934D060E941F
:10244000CA076AE070E080E090E00E94AC010E9460
:10245000B20A709244060E94DF0100913406109186
:1024600035062091360630913706AB01BC01401B82
:10247000510B620B730B8091400690914106B0E0C6
:10248000A0E0512C84179507A607B70708F46AC087
:1024900010924406E5EBF5E001900020E9F7EA5BD5
:1024A000F54009F03DC0809101018823C9F182EA1D
:1024B00093E00E94FF09709200010E94B20A64EF4B
:1024C00071E080E090E00E94AC018091CA0590919B
:1024D000CB05FC0131912091B505A6EBB5E0449602
:1024E000311111C1211117C170928304109284041B
:1024F00070920001109201010E94DF0160936C064E
:1025000070936D0680936E0690936F068EEC93E049
:102510000E94FF090E940E0A8EEE93E00E94FF09BE
:102520002114310409F46DCF0E94BB02882309F401
:1025300068CF0E94000063CF8095892374CE888184
:102540009981802391234BC080913C0690913D0658
:10255000E80EF91E41E0F701608188ED95E00E94E8
:102560006106539480913F065816E8F5E52CF12C4E
:10257000E0913C06F0913D06EE0DFF1D40E06081CC
:1025800088ED95E00E94610695018401052C04C048
:10259000000F111F221F331F0A94D2F76801009504
:1025A0001095412C80913E06481670F6C42DD0E05F
:1025B000E0913A06F0913B06EC0FFD1F608188ED3B
:1025C00095E00E94C3082496CC0FDD1FC852DA4F55
:1025D000892B09F0B4CF888199818C299D29998311
:1025E00088834394DFCF08ED15E0E8018F8D98A133
:1025F000892B31F41C8E2FEF3FEF3E8F2D8F19A2C8
:10260000269644E156E04C175D0781F7F12C809146
:102610003E06F81608F052C0E12C8F2D90E0880F8E
:10262000991FDC01A052BA4F6D0120913F06E216BE
:1026300008F042C0F601608171810E2C02C07695CF
:1026400067950A94E2F7F29E900111242E0D311D38
:10265000E8EDF5E080E0458D568D2417350709F447
:1026600063C08F5F36968A30B1F760FF23C0E8ED14
:10267000F5E090E080E0448D411117C0E09138060C
:10268000F0913906E20FF31F4081689EF001699EC8
:10269000F00D1124E852FA4F448F368F258F10A287
:1026A000178E61E00E94EB0105C0019636968A30D4
:1026B000910509F7E394B9CFF394A9CFF12CD80190
:1026C00091968C918111F82E0A5F1F4F0C171D07F0
:1026D000B1F70E94DF016093340670933506809352
:1026E000360690933706FF2009F4D2CE8091F90583
:1026F000882309F4CDCE8091F7059091F8050197D4
:1027000009F0C6CEC7CE231306C031912D918E1786
:102710009F0709F0E5CE70928504109284047092B0
:1027200000018FED93E0F4CE6170BCCF80E796E0BE
:102730000E94B40B86E796E00E94B40B8CE796E00B
:102740000E94B40B82E896E00E94B40B88E896E001
:102750000C94B40B2F923F924F925F926F927F92A4
:102760008F929F92AF92BF92CF92DF92EF92FF92A1
:102770000F931F93CF93DF93CDB7DEB7CA1BDB0B4D
:102780000FB6F894DEBF0FBECDBF09942A883988F2
:1027900048885F846E847D848C849B84AA84B984F9
:1027A000C884DF80EE80FD800C811B81AA81B98105
:1027B000CE0FD11D0FB6F894DEBF0FBECDBFED0119
:1027C0000895A1E21A2EAA1BBB1BFD010DC0AA1F72
:1027D000BB1FEE1FFF1FA217B307E407F50720F08A
:1027E000A21BB30BE40BF50B661F771F881F991F05
:1027F0001A9469F760957095809590959B01AC014E
:10280000BD01CF010895EE0FFF1F0590F491E02D5B
:1028100009940F931F93CF93DF938230910510F4A7
:1028200082E090E0E0919006F091910630E020E0A7
:10283000B0E0A0E0309799F42115310509F44AC0C1
:10284000281B390B24303105D8F58A819B8161150D
:10285000710589F1FB0193838283FE0111C04081E0
:1028600051810281138148175907E0F04817590731
:1028700099F4109761F012960C93129713961C938B
:102880003296CF01DF91CF911F910F910895009360
:10289000900610939106F4CF2115310551F042179F
:1028A000530738F0A901DB019A01BD01DF01F801EE
:1028B000C1CFEF01F9CF9093910680939006CDCFD1
:1028C000FE01E20FF31F8193919322503109398366
:1028D0002883D7CF20918E0630918F06232B41F489
:1028E000209104013091050130938F0620938E06CC
:1028F00020910201309103012115310541F42DB7DA
:102900003EB74091060150910701241B350BE09121
:102910008E06F0918F06E217F307A0F42E1B3F0BF3
:102920002817390778F0AC014E5F5F4F2417350741
:1029300048F04E0F5F1F50938F0640938E06819391
:1029400091939FCFF0E0E0E09CCFCF93DF9300978F
:10295000E9F0FC01329713821282A0919006B091A7
:102960009106ED0130E020E01097A1F42081318143
:10297000820F931F20918E0630918F0628173907FA
:1029800009F061C0F0938F06E0938E06DF91CF913E
:102990000895EA01CE17DF07E8F54A815B819E01C1
:1029A00041155105B1F7E901FB83EA83499159913A
:1029B000C40FD51FEC17FD0761F480819181029649
:1029C000840F951FE90199838883828193819B837A
:1029D0008A83F0E0E0E012968D919C911397009726
:1029E000B9F52D913C911197CD010296820F931F5D
:1029F00020918E0630918F062817390739F63097C7
:102A000051F51092910610929006B0938F06A09304
:102A10008E06BCCFD383C28340815181840F951F22
:102A2000C817D90761F44E5F5F4F88819981480FBD
:102A3000591F518340838A819B819383828321150F
:102A4000310509F0B0CFF0939106E09390069ECF48
:102A5000FD01DC01C0CF13821282D7CFB0E0A0E02D
:102A6000E4E3F5E10C94AC138C01009751F4CB0135
:102A70000E9409148C01C801CDB7DEB7E0E10C94C7
:102A8000C813FC01E60FF71F9C0122503109E21721
:102A9000F30708F49DC0D901CD91DC911197C617B9
:102AA000D70798F0C530D10530F3CE0104978617CB
:102AB000970708F3C61BD70B2297C193D1936D9349
:102AC0007C93CF010E94A514D6CF5B01AC1ABD0A3E
:102AD0004C018C0E9D1EA0919006B0919106512C38
:102AE000412CF12CE12C109731F580918E069091BC
:102AF0008F068815990509F05CC04616570608F040
:102B000058C08091020190910301009741F48DB764
:102B10009EB74091060150910701841B950BE81761
:102B2000F90708F055C0F0938F06E0938E06F9017F
:102B300071836083A0CF8D919C91119712966C90B8
:102B4000129713967C901397A815B90559F56C0147
:102B500042E0C40ED11CCA14DB0420F1AC014A19B6
:102B60005B09DA011296159780F0628273825183B5
:102B70004083D9016D937C93E114F10471F0D70186
:102B80001396FC93EE93129776CF22968C0F9D1F8F
:102B9000F90191838083F301EFCFF0939106E093E5
:102BA000900669CF4816590608F42C017D01D3011F
:102BB0009ACFCB010E9409147C01009749F0AE0125
:102BC000B8010E94F015C8010E94A514870153CFD7
:102BD00010E000E050CF81E090E0F8940C940016F3
:102BE000FB01DC0102C001900D9241505040D8F72A
:102BF0000895FB01DC0101900D920020E1F708959A
:102C000010E0C6EAD0E004C0FE010E940314219641
:0A2C1000C73AD107C9F7F894FFCFC7
:102C1A000101000092068000004014540040105048
:102C2A006B006C006D00000001000200030004004C
:102C3A000500060007000001010101010101000071
:102C4A000000F10251027E025903AF028D02A10275
:102C5A00000000009B076E07C0084B074A025B078B
:102C6A004C0700000000D5035102C008C8047508CB
:102C7A00C1035C083D080000000047026106C30862
:102C8A000200040106050331323334353637383948
:102C9A002A30230D0A0050617373776F72642072B1
:102CAA006573657400456E7465722020436F6465B0
:102CBA00002A202D20436C656172004576656E748A
:102CCA002048617070656E65640054617374653A7A
:102CDA002000202D3E20436F64653A20004861732E
:102CEA0068204E6F74205573656400636C65617269
:102CFA00656400434C4541524544004C43442072AC
:102D0A00656672657368005570646174654C434406
:102D1A0000414343455353004752414E54454400F2
:102D2A0046757365626F78206F70656E0044454E14
:102D3A004945440043455F53545F46757365626F66
:102D4A00780031302E30352E3230323100766572CD
:102D5A0073696F6E20312E305354004272465553B8
:102D6A0045004655530032353137002168656164A4
:102D7A0065725F626567696E003D3D3D3D3D3D3D63
:102D8A003D3D3D3D3D3D3D46757365426F78203280
:102D9A00302E30382E323031393D3D3D3D3D3D3DBE
:102DAA003D3D3D3D3D3D003D3D3D3D3D3D3D3D3D86
:102DBA003D3D3D3D3D3D3D3D3D3D53455455503DD9
:102DCA003D3D3D3D3D3D3D3D3D3D3D3D3D3D3D3D29
:102DDA003D3D3D3D003D3D5356312E333D3D003D89
:102DEA003D6E6F20687973746572736973207072AF
:102DFA006F74656374696F6E3D3D003D3D49474E92
:102E0A004F52455F4B455950414453544154453DF7
:102E1A003D00216865616465725F656E64002173B7
:102E2A00657475705F626567696E00537461727468
:102E3A00696E672E2E2E004C43443A202020202013
:102E4A006F6B003132562050657269706865726125
:102E5A006C20506F77657220537570706C79204FB3
:102E6A004E0052656C61793A2020206F6B004B65E9
:102E7A00797061643A206F6B002173657475705FB5
:102E8A00656E64003D3D3D3D3D3D3D3D3D3D3D3D25
:102E9A003D3D3D3D3D3D3D53544152543D3D3D3DFB
:102EAA003D3D3D3D3D3D3D3D3D3D3D3D3D3D3D3D48
:102EBA003D0034205A65696368656E2065696E67EE
:102ECA0065626562656E202D207565626572707235
:102EDA00756566652050617373776F727400436F0E
:102EEA0072726563742070617373776F72640057CE
:102EFA00726F6E672070617373776F7264004368D4
:102F0A0065636B2070617373776F726420446F6EB0
:022F1A00650050
:00000001FF
